:100000000C949B010C94B8010C94B8010C94B801A9
:100010000C94B8010C94B8010C94B8010C94B8017C
:100020000C94B8010C945F120C94B8010C94B801B4
:100030000C94B8010C94030C0C94B8010C94B80106
:100040000C94B8010C94B8010C947D110C943A12E4
:100050000C94B8010C94B8010C94B8010C94B8013C
:100060000C94B8010C94B8012020202020202007F7
:1000700020467567756520696E2044204D696E6F56
:1000800072202D206279204A2E532E20426163680F
:100090002007202020202020200021205431323031
:1000A0004F354C313661676166616561206461631B
:1000B0002B61646165612066613C61613C626163E2
:1000C00023612064616323616461656120664F364A
:1000D0006463643C622D643C61643C6720643C66FC
:1000E0002B643C67643C61643C622D20643C646426
:1000F0003C65643C662B643C6720643C662B643C36
:1001000067643C61644C384D533C622D643C622D05
:1001100064204D4C652D3C67652D3C67204D536335
:100120003C61633C61204D4C643C66643C66204FFE
:10013000354D53622D67622D674D4C3E6323653EFE
:10014000632365204D532061666166204D4C206716
:100150006323676323204D532066646664204D4CFF
:1001600020653C622D653C622D4F364C3136726104
:1001700067616661656120646163236164616561D3
:100180002066613C61613C6261632361206461635C
:100190002361646165612066616561646163613CDE
:1001A000622D61636164673C622D672065676467E7
:1001B00063673C622D67203C61673C622D67636624
:1001C0003C616620646663663C622D663C61663C09
:1001D00067663C61663C622D653C6765206323650C
:1001E0003C622D653C61653C6765203C66653C670B
:1001F000653C61643C66644F35653E65653E656699
:100200003E64663E6420622D3E6323622D3E63237E
:10021000613E64663E6420653E65653E65663E649B
:10022000663E64653E643E63233E64623E643E63B4
:100230002362203E63236167616567666520664FC0
:100240003664632364666463233C62206323340062
:1002500000020105091E080404060505041C1C0013
:10026000000000000000001F1F1F1F1F1F1F21761E
:10027000383E3E633332002167333200216533322A
:100280000021633332003E3E6333323E6733320037
:100290003E6733323E3E633332000642007F4120E8
:1002A000A54220437E0054696D6572005472696DE9
:1002B000706F74004D75736963004D6F746F727366
:1002C0000053656E736F7273004C45447300426156
:1002D00074746572790020204D656E750020204D84
:1002E00061696E002020796F752100205468616E6D
:1002F0006B20002D7472792069742100507265732F
:100300007320420073656C6563742E00557365201D
:100310004220746F0050726F6772616D0044656DAA
:100320006F0033F720526F626F740020506F6C6F54
:100330006C7500003A1311241FBECFEFD8E0DEBF6A
:10034000CDBF11E0A0E0B1E0E0EAF7E302C0059024
:100350000D92A239B107D9F722E0A2E9B1E001C0BC
:100360001D92A63AB207E1F70E944E070C94C31BF8
:100370000C940000DC011296ED91FC9113971696F7
:100380008C9190816F3F11F4892706C0662311F08C
:10039000892B02C080958923808308950E94460995
:1003A000BC01990F880B990B0E94630E80E491E0C9
:1003B0000E94FD0D84E690E00C94A712CF92DF928C
:1003C000EF92FF920F931F93CF93DF93CDB7DEB7DA
:1003D0002A970FB6F894DEBF0FBECDBF80E20E9411
:1003E000A80F882311F060E001C061E0CE01019602
:1003F0000E94F9128E010F5F1F4F7E018BE0E80E05
:10040000F11C89ECC82ED12CF801819191918F01BA
:10041000B6010E942D17FB01E05AFE4F80810E9419
:100420007E0D0E151F0581F780E20E94A80F88231C
:1004300019F083E491E002C087E491E00E94FD0D91
:1004400084E690E00E94A7122A960FB6F894DEBFC9
:100450000FBECDBFDF91CF911F910F91FF90EF9015
:10046000DF90CF900895CF93DF9382E00E94A80F92
:1004700020912502309126028823E1F0232B81F47C
:1004800088EC90E00E94A71282E00E94A80F8111E0
:1004900007C081E090912202911180E080932202B6
:1004A00080912502909126020A96909326028093CD
:1004B000250206C0245131093093260220932502DB
:1004C00080E20E94A80F2091230230912402882309
:1004D000E1F0232B81F488EC90E00E94A71280E2E7
:1004E0000E94A80F811107C081E090912102911113
:1004F00080E08093210280912302909124020A9649
:10050000909324028093230206C024513109309332
:10051000240220932302809125029091260297FFC6
:1005200004C010922602109225028091250290911B
:1005300026028F3F910539F034F08FEF90E09093D1
:10054000260280932502809123029091240297FF36
:1005500004C01092240210922302809123029091F1
:1005600024028F3F910539F034F08FEF90E09093A3
:1005700024028093230280912502909126022AE191
:1005800030E0B9010E944117FB01E05AFE4FD081D3
:100590008091230290912402B9010E944117FB012E
:1005A000E05AFE4FC0818D2F0E947E0D8091220265
:1005B000811102C081E401C081E60E947E0D8D2F71
:1005C0000E947E0D60E085E00E949D0E8C2F0E94AF
:1005D0007E0D80912102811102C083E401C083E677
:1005E0000E947E0D8C2F0E947E0D2091230230915F
:1005F000240280912102811103C081E090E002C0B9
:100600008FEF9FEF289FB001299F700D389F700DCD
:10061000112420912502309126028091220281111D
:1006200003C081E090E002C08FEF9FEFAC01249FF8
:10063000C001259F900D349F900D11240E94650FDD
:1006400082E390E0DF91CF910C94A7120F931F9358
:10065000CF93DF930E94DF1200911D0210911E02C2
:1006600020911F0230912002DC01CB01801B910BF5
:10067000A20BB30B8B3F9105A105B10520F1C0E0A2
:10068000D0E080911C02FE01E80FF11DE859FF4FF8
:1006900084910E947E0D2196C830D10591F70E9469
:1006A000DF1260931D0270931E0280931F029093CD
:1006B000200280911C028F5F8A3218F480931C0202
:1006C00002C010921C020E94630C811104C08AE9CE
:1006D00090E00E94840C84E690E0DF91CF911F911E
:1006E0000F910C94A7124F925F926F927F928F920C
:1006F0009F92AF92BF92CF92DF92EF92FF920F93B1
:100700001F930E94DF12AB01BC01809118029091EF
:100710001902A0911A02B0911B02892B8A2B8B2BF4
:1007200021F18091100290911102A0911202B091DA
:1007300013028A019B01081B190B2A0B3B0BD901E1
:10074000C801C0901402D0901502E0901602F090FB
:1007500017028C0D9D1DAE1DBF1D8093140290933A
:100760001502A0931602B093170240931002509303
:100770001102609312027093130282E00E94A80F8C
:100780008823F9F080910F0281111BC081E08093D2
:100790000F02109218021092190210921A0210926F
:1007A0001B0210921402109215021092160210925F
:1007B00017020E94630C811104C081E892E00E943C
:1007C000840C82E00E94A80F811102C010920F02D7
:1007D00080E20E94A80F882331F180910E028111DE
:1007E00022C081E080930E0281E090E0A0E0B0E0C2
:1007F000409118025091190260911A0270911B02E7
:10080000452B462B472B19F080E090E0DC018093CC
:10081000180290931902A0931A02B0931B0287E763
:1008200092E00E94840C80E20E94A80F811102C015
:1008300010920E02609114027091150280911602BE
:100840009091170220EC37E249E050E00E947717C0
:100850008AE0C82ED12CE12CF12CCA01B901A701E4
:1008600096010E9477170E94630E609114027091A6
:100870001502809116029091170220E63AEE40E0B0
:1008800050E00E947717CA01B901A70196010E94A2
:1008900077170E94630E8AE30E947E0D6091140216
:1008A00070911502809116029091170228EE422E47
:1008B00023E0522E612C712CA30192010E94771724
:1008C0006CE3862E912CA12CB12CCA01B901A50193
:1008D00094010E947717A70196010E947717CA0119
:1008E000B9010E94630E609114027091150280910B
:1008F000160290911702A30192010E947717CA0174
:10090000B901A50194010E947717A70196010E94E1
:1009100077174B015C017727882799270E94630E80
:100920008EE20E947E0D60911402709115028091FA
:1009300016029091170224E630E040E050E00E9459
:100940007717CA01B901A70196010E9477170E9483
:10095000630E6091140270911502809116029091BD
:100960001702A70196010E947717CA01B901A701D2
:1009700096010E9477170E94630E80910D028816DF
:10098000A1F08091140290911502A0911602B091ED
:100990001702892B8A2B8B2B41F00E94630C81114B
:1009A00004C08EE692E00E94840C80920D021F919A
:1009B0000F91FF90EF90DF90CF90BF90AF909F90FE
:1009C0008F907F906F905F904F900895CF93DF93BB
:1009D000CDB7DEB727970FB6F894DEBF0FBECDBFF9
:1009E00029E230E03A8329832BE230E03C832B83F9
:1009F0002AE230E03E832D8392E09F83682FCE0170
:100A000001960E94BA01ED81FE8190818F81892B30
:100A1000808327960FB6F894DEBF0FBECDBFDF915F
:100A2000CF910895CF93DF93CDB7DEB727970FB659
:100A3000F894DEBF0FBECDBF29E230E03A832983B0
:100A40002BE230E03C832B832AE230E03E832D838F
:100A500090E89F83682FCE0101960E94BA01ED8134
:100A6000FE8190818F81892B808327960FB6F89421
:100A7000DEBF0FBECDBFDF91CF9108950F931F93BF
:100A8000CF93DF930E94DF12D62F80917C008F7D61
:100A900080937C000E94F008BC0180E090E00E94FE
:100AA000630E8BE491E00E94FD0D0E94DF12C62FC1
:100AB000CD1BC436D8F40E94F0088C014FE068ECDE
:100AC00070E00E94610A8AE0C89F90011124021719
:100AD00013072CF480E00E94E60481E004C081E06A
:100AE0000E94E60480E00E941205DFCFDF91CF91E3
:100AF0001F910F91089560E080E692E00E947B0DC7
:100B000061E081E692E00E947B0D62E082E692E085
:100B10000E947B0D63E084E692E00E947B0D64E01E
:100B200085E692E00E947B0D65E086E692E00E94F9
:100B30007B0D66E080E592E00E947B0D67E088E532
:100B400092E00E947B0D0C94EE0DCF93DF93C9E1F0
:100B5000D0E08AE090E00E94A71280E10E94A80FF6
:100B6000811103C02197A9F701C081E0DF91CF91E6
:100B7000089586E591E00E94730C8FE491E00E9455
:100B8000FD0D81E00E94E6040E94A50581111DC0B3
:100B90000E94E6040E94A505811117C085E591E039
:100BA0000E94730C60E080E00E949D0E8AE591E057
:100BB0000E94FD0D81E00E9412050E94A505811191
:100BC00004C00E9412050C94A5050895CF93DF93ED
:100BD000C1ECD0E08881877F88830E94B905888135
:100BE00088608883DF91CF910895CF92DF92EF9252
:100BF000FF92CF93DF9300D0CDB7DEB77B0189831F
:100C00009A830E94EE0D89819A810E940E0E61E006
:100C100080E00E949D0EC7010E940E0E0E94DF120E
:100C20006B017C010E94DF12DC01CB018C199D0954
:100C3000AE09BF09883E9340A105B10518F40E9492
:100C40005C08F0CF0F900F90DF91CF91FF90EF9065
:100C5000DF90CF900895CF9382E30E944F10C82F6A
:100C60000E945C08CC23C1F3C1FF03C081E892E07D
:100C700009C0C4FF03C08CE792E004C0C5FF04C0F4
:100C800087E792E00E94840C8C2F0E94F51081115E
:100C900003C00E945C08F8CF8C2FCF910895CF92AB
:100CA000DF92EF92FF9280ED97E00E9436130E9450
:100CB0007B050E9462080E94DF126B017C010E948A
:100CC000DF12DC01CB018C199D09AE09BF09843FFD
:100CD0009140A105B10518F40E945C08F0CF80E9AD
:100CE00092E00E94840C62E273E08BE293E00E9447
:100CF000F50565E173E08DE193E00E94F50564E0A0
:100D000073E08CE093E00E94F5050E94EE0D8CEFFD
:100D100092E00E940E0E61E080E00E949D0E83EF43
:100D200092E00E940E0E0E942B0684FFFCCF86E804
:100D300092E00E94840C64EE72E08BEE92E0FF90F1
:100D4000EF90DF90CF900C94F5050F931F93CF9306
:100D500066ED72E08DED92E00E94F50506E010E090
:100D60000E94EE0D61E080E00E949D0E8DE992E010
:100D70000E940E0E60E080E00E949D0EE0910B024A
:100D8000F0910C02EE0FFF1FEC5EFE4F808191810F
:100D90000E940E0E81E00E94A80E0E945C0882E371
:100DA0000E944F10C82F8823C1F381FF0AC081E839
:100DB00092E00E94840C80910B0290910C020197AA
:100DC00053C084FF46C00E94AF0E0E94EE0D8CE718
:100DD00092E00E94840C8C2F0E94940F80E10E946C
:100DE000A80F811119C061E080E00E949D0E8AE980
:100DF00092E00E940E0E60E080E00E949D0EE09165
:100E00000B02F0910C02EE0FFF1FE659FE4F01900E
:100E1000F081E02D0995E2CF60E070E080E090E0A5
:100E20000E94650F0E94A10C1092260210922502CA
:100E3000109224021092230280E00E94E60480E0D7
:100E40000E9412058CE792E0CF911F910F910C94B4
:100E5000840C85FF0DC087E792E00E94840C80918E
:100E60000B0290910C02019690930C0280930B025E
:100E700080910B0290910C0297FF04C010930C021A
:100E800000930B0280910B0290910C0207970CF4D7
:100E900067CF10920C0210920B0262CF0E944F0695
:100EA0000E94A506FDCFCF93DF9380912E029091F3
:100EB0002F02892B09F459C080912C02882321F03C
:100EC00080912A02811105C060E070E080E090E02E
:100ED00048C061E088E992E00E9400139C01205D17
:100EE00037408091280290912902E901C81BD90B53
:100EF000309329022093280240912D02429FC00185
:100F0000439F900D112460912C0270E00E944117C4
:100F1000FB0120912B022C9FC0012D9F900D1124CD
:100F200040912A02642F70E00E94411790912201A3
:100F3000892F90E09F01260F371F821793070CF42B
:100F40009C0144275527481B590B241735070CF4DF
:100F50009A01BC0137FF03C0820F931F02C0621BBE
:100F6000730BDF91CF910C94650FDF91CF910895B2
:100F70000E94F8109091270289130BC00E94BB0CAD
:100F80000E94F810909127028913F2CF0E94530714
:100F9000EFCFE92FF0E0EC5CFD4F80819F5F94364E
:100FA00018F4909327020895109227020895EF9263
:100FB000FF920F931F93CF93DF93CDB7DEB72C979C
:100FC0000FB6F894DEBF0FBECDBF7F936F935F93D4
:100FD0004F939F938F9388E791E09F938F938E0118
:100FE0000F5F1F4F1F930F930E942219F80101906A
:100FF0000020E9F731977F01E01AF10A0E94EE0D17
:10100000C8010E94FD0D6E2DC8010E94371280EDAF
:1010100097E00E94A7120FB6F894DEBF0FBECDBFB7
:101020002C960FB6F894DEBF0FBECDBFDF91CF91E7
:101030001F910F91FF90EF9008950E94B807C82F5D
:10104000813691F038F48A30C1F38D30B1F38111DB
:1010500021C0F3CF833691F060F08436D9F448ECA8
:1010600050E060E070E011C046E950E060E070E000
:101070000CC048E750E060E070E004C040EA50E097
:1010800060E070E080E891E002C08EE791E00E94AD
:10109000D707D3CF0E94EE0D82E891E00E94FD0DAC
:1010A00061E080E00E949D0E8C2F0E947A0E8AE8FB
:1010B00091E00E94730CC1CF0E94F81081110E9430
:1010C0001D0808955098589A60E072EC81E090E015
:1010D0000E94D11164E684E392E00C947A11ECE76B
:1010E000F0E080818F7D80830895811103C00E948C
:1010F0006F08089580917C00806280937C00089541
:1011000080917C0085FB882780F908950E948008E3
:10111000882321F08091790090E0089580917800F3
:101120009091790008958032A0F497E890937A0026
:1011300090917C00662311F0906C02C09F779064C0
:10114000907E982B90937C0080917A0080648093AD
:101150007A000895A0E0B0E0E0EBF8E00C94C2174C
:10116000EB0160E00E94930880917A0086FDFCCF3D
:101170008E01C12CD12C760180917A0080648093FD
:101180007A0080917A0086FDFCCF0E948608C80E06
:10119000D91EE11CF11C015011090115110561F75F
:1011A000CE0196958795C034D10538F48C0D9D1DE0
:1011B000BE010E942D17CB010EC0A7019601280F7A
:1011C000391F411D511DCA01B9019E0140E050E087
:1011D0000E945517C901CDB7DEB7E8E00C94DE17C1
:1011E00064E170E087E00E94AA080895CF92DF9240
:1011F000EF92FF92A0910001B09101019C010E9429
:1012000096176B017C010E948008882359F0C70162
:10121000B60161587F4F8F4F9F4F2FEF30E040E076
:1012200050E00AC0C701B60161507E4F8F4F9F4FFB
:101230002FEF33E040E050E00E945517C901FF90C6
:10124000EF90DF90CF9008950E94AA080E94F608C0
:1012500008951F93CF93DF930E948008182F0E9458
:101260006F086AE070E086E00E942409EC01812F9B
:101270000E947508CE01880F991F8C0F9D1F019643
:1012800096958795DF91CF911F9108950E94290926
:10129000089590919701E0919201F0919301992323
:1012A00011F0849101C080812FEB280F2A3110F4B6
:1012B000805E0895803249F49F012F5F3F4F309345
:1012C000930120939201EF2B31F708951F93CF9351
:1012D000DF930E944909C0E0D0E01AE090ED980F3A
:1012E0009A30B8F49E01129FE001139FD00D112493
:1012F000C80FD11D87FDDA95E097809192019091FA
:101300009301019690939301809392010E94490961
:10131000E5CFCE01DF91CF911F91089510926F001C
:1013200083E28093800081E18093810010928200AB
:1013300080E197E2909389008093880010928B005F
:1013400010928A00229A789408958F929F92AF9279
:10135000BF92DF92EF92FF920F931F93CF93DF9391
:101360005C018B01D42E80919401811105C081E034
:10137000809394010E948E0910920B01B7FE05C064
:10138000E894B7F82AE0F22E02C0FF24F394E0902C
:1013900081002E2D287FE22E48ECF49EC0011124FE
:1013A0008A159B05E0F4E50151E1A51657E2B50663
:1013B00010F0C0E1D7E2BE017695679580E090E03D
:1013C0006058794687469F4F4E01A12CB12CA5014C
:1013D00094010E94551759018E2D816024C0C8E2E6
:1013E000FC9EC02D1124D0E0CA15DB0508F4E501F0
:1013F000BE01769567959E0140E050E08AE0F812C4
:1014000007C080E090E0605E734481449F4F06C057
:1014100080E090E060537D4E8C4E9F4F0E945517A8
:1014200059018E2D8260882E2AE0F21207C0CE016B
:1014300005966AE070E00E942D17EB01C83E43E07C
:10144000D40759F09801DE010E94961728EE33E088
:1014500040E050E00E947717890110926F0080925F
:101460008100B0928900A09288002091880030917C
:1014700089004D2D403108F04FE080E190E0841B61
:101480009109A90102C0569547958A95E2F75093B4
:101490008B0040938A0010939A010093990186B3C0
:1014A0008FEF86BB81E080936F00DF91CF911F911A
:1014B0000F91FF90EF90DF90BF90AF909F908F9033
:1014C00008950E94A5090895CF93DF93EB018F3F04
:1014D00011F0411105C040E0BE0188EE93E043C029
:1014E000813130F050EF580F503618F05FE501C0F1
:1014F00050E0852F6CE00E942117682F74EF76036F
:1015000090011124250F311D2C30310540F4F901D3
:10151000EE0FFF1FED5DFE4F2081318102C020E004
:1015200030E0873081F0082E02C0220F331F0A946A
:10153000E2F7823028F0C90105966AE070E00CC03D
:10154000C90190580CC0C90136E0880F991F3A951F
:10155000E1F7029665E070E00E942D17CB01403163
:1015600008F04FE0BE010E94A509DF91CF910895D8
:10157000A2E0B0E0EEEBFAE00C94BA1790900A010A
:1015800080919601882321F060919501611117C027
:1015900077247394B0ECAB2EBDE5BB2E1AE0612E20
:1015A00004E0802E80EDC82E87E0D82E94E0E92E4E
:1015B000F12C04EF11E02FE0422E512C15C070E009
:1015C00040E088EE93E00E94A5091092950117C1B2
:1015D0008636D4F5813609F4A9C07CF58C3309F43C
:1015E00060C08E3381F493940E9449092091920146
:1015F000309193012F5F3F4F3093930120939201DD
:10160000853631F752C0813209F08BC080920A01D1
:10161000D0920901C0920801F0920701E092060100
:1016200010930501009304015092030140920201BE
:1016300010929601A4E09A2ED7CF8336A1F10CF434
:1016400078C010E082E077C08D36C1F194F487361F
:1016500091F174F18C3609F064C00E946609BC01F6
:1016600090930701809306018091080190910901F0
:1016700051C08237C9F14CF48F3609F052C00E9434
:101680006609982E80930A01AFCF843781F186379F
:1016900009F047C00E9466099093030180930201FC
:1016A000A3CF9A94A1CF10E020C010E084E043C003
:1016B00010E085E040C010E087E03DC00E9449098D
:1016C0008C3619F41092960104C070929601109213
:1016D000950120919201309193012F5F3F4F3093FC
:1016E00093012093920180CF11E080E024C00E94FA
:1016F0006609BC01C5010E942D17669EC001679E48
:10170000900D1124909309018093080160910601C6
:10171000709107010E942D177093050160930401D9
:1017200063CF109293011092920169C010E089E09A
:1017300002C010E08BE0082F9CE0999E000D112460
:101740000E944909982F977F933261F4209192016A
:10175000309193012F5F3F4F30939301209392017B
:101760000F5FEECF8D3271F4209192013091930191
:101770002F5F3F4F309393012093920101500E94BD
:101780004909F0CF609104017091050181538830BF
:1017900050F4E0900801F09009010E946609BC0134
:1017A000C7010E942D177B01F694E79469837A8321
:1017B0000E94490969817A818E3269F420919201EF
:1017C000309193012F5F3F4F30939301209392010B
:1017D0006E0D7F1DE9CF80919601882339F09B0122
:1017E0003695279520939501621B7109409102015E
:1017F000112311F08FEF01C0802F0E94640A2296FE
:10180000E0E10C94D6171F920F920FB60F9211249D
:101810002F933F934F935F936F937F938F939F93F8
:10182000AF93BF93EF93FF938091990190919A01A9
:101830009C012150310930939A0120939901892B01
:1018400011F510926F00789480918100887F8160FB
:101850008093810080E197E29093890080938800D3
:1018600010928B0010928A0081E080930B0180918E
:10187000920190919301892B31F08091980181110F
:1018800002C00E94B80AFF91EF91BF91AF919F9162
:101890008F917F916F915F914F913F912F910F9019
:1018A0000FBE0F901F90189580910B01882349F06F
:1018B00081E02091920130919301232B19F480E073
:1018C000089581E008950E94540C089510926F00CD
:1018D0009093930180939201109297011092950139
:1018E0000E94B80A08950E94660C089510926F0035
:1018F000909393018093920181E0809397011092DD
:1019000095010E94B80A08950E94760C08951092DD
:101910006F00E1E8F0E08081887F8160808380E172
:1019200097E2909389008093880010928B00109228
:101930008A0081E080930B01109293011092920132
:1019400008950E94870C089580910B01882331F03F
:101950008091920190919301892B49F481E020912B
:10196000920130919301232B29F480E008950E9485
:10197000B80AF4CF08950E94A40C089581E090E085
:101980006F9364E06A95F1F76F910197C9F7089535
:101990000F931F93CF93DF931AB157985A98289AB1
:1019A000C0E0D0E00E94BE0C5C9A0E94BE0C09B15F
:1019B0005C980E94BE0C5C9A0E94BE0C5C982496B7
:1019C00007FF10C0AE0160E070E080919B01909134
:1019D0009C01A0919D01B0919E01481759076A078B
:1019E0007B0700F31AB9DF91CF911F910F910895F2
:1019F00095B1282F217030E0220F331F482F4670F9
:101A000068E0469FA0011124242B9D7C292B25B939
:101A10009BB188708295807F9F77892B8BB95C9A68
:101A20000E94BE0C5C980E94BE0C0895A0E0B0E03D
:101A3000ECE1FDE00C94C317C82FD62EE42E809164
:101A40003002811105C081E0809330020E94860D32
:101A50000E94C80C14B1D5B1FAB00BB12898DD20A2
:101A600011F05A9A01C05A9894B1926394B9579A56
:101A700081E0E81629F08C2F82958F700E94F80C77
:101A80008C2F8F700E94F80CFAB80BB914B9D5B925
:101A9000CDB7DEB7E7E00C94DF1742E060E00E94CC
:101AA000160D089542E061E00E94160D0895A1E030
:101AB000B0E0EDE5FDE00C94C4178C01660F660FF5
:101AC000660FE12CF12C8E2D860F806469830E94B5
:101AD0004D0DF801EE0DFF1D84910E94520D8FEF08
:101AE000E81AF80A6981E8E0EE16F10461F7219638
:101AF000E6E00C94E0170E94570D08950E94520DE5
:101B0000089541E060E00E94160D089580E197E29B
:101B1000A0E0B0E080939B0190939C01A0939D0175
:101B2000B0939E01529A209A549A8EE190E00E94BE
:101B3000A71283E00E94810D86E090E00E94A71228
:101B400083E00E94810D82E090E00E94A71283E072
:101B50000E94810D82E090E00E94A71282E00E9424
:101B6000810D82E090E00E94A71288E20E944D0D54
:101B700088E00E944D0D81E00E944D0D86E00E949C
:101B80004D0D8CE00E944D0D089581E00E944D0D99
:101B90008091A1019091A201892BF9F060E0A0E26F
:101BA000262F30E070910C0180910D0190E001979B
:101BB000789FA001799F500D1124241735074CF40C
:101BC000E091A101F091A201E20FF31FA0836F5FEA
:101BD000E7CF10929F011092A00108950E94C50DB9
:101BE0000895CF93DF93EC018991882319F00E9427
:101BF000520DFACFDF91CF9108950E94F10D089513
:101C0000CF93DF93EC01FE018491882321F00E94A1
:101C1000520D2196F8CFDF91CF9108950E94000ECA
:101C20000895AAE0B0E0E7E1FEE00C94C2171AE0E4
:101C30005AE0C52ED12CE12CF12C062FA7019601DC
:101C40000E945517CA01B9011150E1E0F0E0EC0F14
:101C5000FD1FE10FF11D005D2AE0629F00191124B4
:101C60000083611571058105910539F71A3058F423
:101C7000E1E0F0E0EC0FFD1FE10FF11D80810E941B
:101C8000520D1F5FF3CF2A96E8E00C94DE17CF9237
:101C9000DF92EF92FF926B017C0197FF0BC0F094F3
:101CA000E094D094C094C11CD11CE11CF11C8DE2C5
:101CB0000E94520DC701B6010E94110EFF90EF90D5
:101CC000DF90CF9008950E94470E08958A3010F457
:101CD000805D01C0895C0E94520D0895CF93C82F8A
:101CE00082958F700E94660E8C2F8F700E94660EF8
:101CF000CF9108950E946E0E0895A5E0B0E0E3E84C
:101D0000FEE00C94C717182F80E8898380EC8A8343
:101D100084E98B8384ED8C83FE01E60FF11D8181C4
:101D2000810F6D830E944D0D10939F016D81609313
:101D3000A0012596E3E00C94E3170E947D0E089520
:101D4000813011F48FE001C08EE00E944D0D0895A6
:101D50000E94A00E08958CE00E944D0D08950E94EF
:101D6000AB0E0895883058F491E001C0990F8A9520
:101D7000EAF7892FAAE2B0E0EBE2F0E021C08E3072
:101D800060F498EF980F81E001C0880F9A95EAF708
:101D9000A4E2B0E0E5E2F0E013C0853160F492EF38
:101DA000980F81E001C0880F9A95EAF7A7E2B0E0AA
:101DB000E8E2F0E005C080E0A0E0B0E0E0E0F0E0C4
:101DC0006F3F19F49081982709C0662319F090811C
:101DD000982B04C02081982F9095922390839C91FA
:101DE000982B9C93089583EF8093B00084BD82E08C
:101DF0008093B10085BD1092B4001092B30018BC5E
:101E000017BC60E086E00E94B20E60E085E00E94B0
:101E1000B20E60E08BE00E94B20E60E083E00E94B0
:101E2000B20E089580913102811105C081E0809346
:101E300031020E94F30E0895CF93DF93EC010E94CC
:101E4000120FD7FF05C0D195C195D10981E001C01E
:101E500080E0CF3FD10519F014F0CFEFD0E0882318
:101E600019F018BCC7BD02C0C8BD17BCDF91CF9127
:101E70000895CF93DF93EC010E94120FD7FF05C0A6
:101E8000D195C195D10981E001C080E0CF3FD10556
:101E900019F014F0CFEFD0E0882329F01092B400AD
:101EA000C093B30004C0C093B4001092B300DF919C
:101EB000CF910895CF93DF93EB010E941C0FCE01C9
:101EC0000E94390FDF91CF9108950E945A0F089513
:101ED00084B18D7C84B985B1826385B985E090E059
:101EE0006F9364E06A95F1F76F910197C9F70895D0
:101EF00080913202811105C081E0809332020E94FC
:101F0000680F0895CF93C82F0E94780F83B18C2358
:101F1000E9F38AE090E00E94A71283B18C23B1F329
:101F200083B18C23CF9108950E94820F0895A1E080
:101F3000B0E0EDE9FFE00C94C81789830E94780FA8
:101F400093B19095898189232196E2E00C94E4175E
:101F50000E94970F0895A4E0B0E0E1EBFFE00C943D
:101F6000C517182FF3B0F0940E94DF1269837A83AB
:101F70008B839C830E94780F2091AE0169817A81C6
:101F80008B819C81213009F138F0223009F453C053
:101F9000233009F463C07EC0212F30E04F2D50E084
:101FA0004095509524233523232B09F473C0F094D6
:101FB000F122F092AD016093A9017093AA01809380
:101FC000AB019093AC0181E063C00091A901109135
:101FD000AA012091AB013091AC01DC01CB01801B47
:101FE000910BA20BB30B0F97A105B10508F452C0DA
:101FF0004091AD018F2D90E080959095242F30E099
:1020000082239323892BA1F082E08093AE01F09488
:10201000F422F092AD013EC030E0812F90E04F2DD0
:1020200050E040955095842395232817390791F166
:102030001092AE012FC02091AD013F2D322361F3EC
:1020400023E02093AE013093AD016093A90170931A
:10205000AA018093AB019093AC011CC00091A9012F
:102060001091AA012091AB013091AC01DC01CB01B0
:10207000801B910BA20BB30B0F97A105B10550F07C
:102080008091AD018F2119F01092AE0104C082E061
:102090008093AE0180E02496E5E00C94E1170E9465
:1020A000AB0F0895A4E0B0E0E8E5F0E10C94C517AB
:1020B000182FF3B00E94DF1269837A838B839C838D
:1020C0000E94780F2091A80169817A818B819C817F
:1020D000213009F138F0223009F453C0233009F4DB
:1020E00063C07EC0212F30E04F2D50E040955095C9
:1020F00024233523232B09F473C0F094F122F092AA
:10210000A7016093A3017093A4018093A50190930C
:10211000A60181E063C00091A3011091A401209168
:10212000A5013091A601DC01CB01801B910BA20B14
:10213000B30B0F97A105B10508F452C04091A70158
:102140008F2D90E080959095242F30E0822393236B
:10215000892BA1F082E08093A801F094F422F09200
:10216000A7013EC030E0812F90E04F2D50E0409518
:102170005095842395232817390791F11092A801CF
:102180002FC02091A701322F3F2161F323E020933C
:10219000A8013093A7016093A3017093A4018093D9
:1021A000A5019093A6011CC00091A3011091A40168
:1021B0002091A5013091A601DC01CB01801B910B80
:1021C000A20BB30B0F97A105B10550F08091A701A9
:1021D0008F2119F01092A80104C082E08093A80119
:1021E00080E02496E5E00C94E1170E9452100895D7
:1021F0008091B1010895282F30E09AE0899FF00185
:102200001124E155FE4F80859185009721F0528180
:102210004481541780F08AE0829FF001839FF00D83
:102220001124E155FE4F9281848198130EC085815F
:1022300081110AC008954281DC01A40FB11D6C9385
:1022400082818F5F8283E7CF12820895CF93DF93DD
:102250009091C1009F779093C100C82FD0E09AE081
:10226000899FF0011124E155FE4F20853185232BF4
:1022700041F022819481291720F49091C00097FDAC
:1022800011C08AE08C9FF0018D9FF00D1124E15563
:10229000FE4F808181110BC08091C10080688093C6
:1022A000C10005C06091C6000E94FB10EACFDF911B
:1022B000CF9108959091C1009F779093C1009AE0CB
:1022C000899FF0011124E155FE4F718760871282CA
:1022D000448325838081811105C08091C10080687D
:1022E0008093C1000895462F21E0BC0180E00E9448
:1022F0005A1108950E94731108951F920F920FB6FC
:102300000F9211242F933F934F935F936F937F937B
:102310008F939F93AF93BF93EF93FF936091C6000A
:1023200080E00E94FB10FF91EF91BF91AF919F91D0
:102330008F917F916F915F914F913F912F910F906E
:102340000FBE0F901F9018959AE0899FF0011124FD
:10235000E155FE4F86819781892B59F091818381C8
:10236000981738F48081811104C08091C100806287
:1023700003C08091C1008F7D8093C10008959AE0D1
:10238000899FF0011124E155FE4F9081911102C007
:1023900098E901C098E19093C1000E94A41178943B
:1023A0000895CF92DF92EF92FF926B017C0180E063
:1023B0000E94BF11A8EFBFEFA70196010E94B317BB
:1023C000735D8E4C9E4FE4E0220F331F441F551F58
:1023D000EA95D1F70E9455173093C5002093C400A9
:1023E000FF90EF90DF90CF9008959AE0899FF001E1
:1023F0001124E155FE4F268137812115310541F029
:1024000041819381491720F49091C00095FD03C04C
:102410000E94A41108959181D901A90FB11D9C9129
:102420009093C60091819F5F9183F2CFE1ECF0E041
:1024300080818F7D808380E00E94F51180E00E9482
:10244000261108959093B6018093B5011092B001C2
:102450006093B20180E00E94A4119091B00180913C
:10246000B201981719F00E941612F7CF08950E9432
:10247000221208951F920F920FB60F9211242F93DC
:102480003F934F935F936F937F938F939F93AF93FC
:10249000BF93EF93FF9380E00E94F511FF91EF91BE
:1024A000BF91AF919F918F917F916F915F914F916C
:1024B0003F912F910F900FBE0F901F9018952F9264
:1024C0008F939F932FB68091C0019091C101019687
:1024D0008093C0019093C10190E08091C201891F57
:1024E0008093C2019091BA019C5F9093BA01809150
:1024F000B90180519742C0F09093BA018093B9011D
:102500008091BB019091BC0101968093BB01909397
:10251000BC0190E08091BD01891F8093BD01809135
:10252000BE01891F8093BE012FBE9F918F912F9076
:10253000189528EE33E0019748F0F9016F9364E0B5
:102540006A95F1F76F913197C9F7F5CF08950E9419
:1025500099120895E0E7F0E080818E7F8083A0EB00
:10256000B0E08C9183608C93A1EBB0E08C91807F84
:102570008C938C9182608C93B89A808181608083E7
:102580007894089580913302811105C081E0809391
:1025900033020E94AA1208950E94C212E0E7F0E0FE
:1025A00080818E7F80836091BB017091BC0180919E
:1025B000BD019091BE0120812160208308950E9479
:1025C000CC1208950E94C212E0E7F0E080818E7F75
:1025D00080831092BB011092BC011092BD01109239
:1025E000BE011092BA011092B9018081816080838E
:1025F0000895462FBC0183EC91E00E948415089554
:10260000462F20E0BC0183EC91E00E948E160895D5
:102610000F93CF93DF9300D000D01F92CDB7DEB7DA
:102620009C0185E0EBE3F1E0DE01119601900D9253
:102630008A95E1F7662311F00FEF01C003E145E051
:10264000BE016F5F7F4F83EC91E00E94DA1383EC51
:1026500091E00E94B1130E94E2120F900F900F9030
:102660000F900F90DF91CF910F91089560E00E943D
:102670000813089583EC91E00E94031708956F9367
:1026800064E06A95F1F76F910197C9F70895FC012D
:10269000118210821382128215821482168268308F
:1026A00068F489E290E0918380838BE290E09383E9
:1026B00082838AE290E0958384831FC06E3070F439
:1026C00083E290E09183808385E290E0938382832C
:1026D00084E290E09583848368500FC0653198F45C
:1026E00086E290E09183808388E290E09383828306
:1026F00087E290E0958384836E5081E001C0880F6B
:102700006A95EAF786830895A7E0B0E0EAE8F3E186
:102710000C94C6178C01FC01118210821382128264
:102720001582148217821682613118F080E1808749
:1027300002C0FC016087F801208B642FCE01019656
:102740000E9447138F81F80181878B819C81938739
:1027500082878D819E81958784872796E4E00C94FB
:10276000E217FC01A485B585109779F08C919185CD
:10277000892B8C93A285B3859C9181858095892333
:102780008C9388EC90E00E943F130895FC01A4858F
:10279000B585109771F08C919185892B8C93A285CA
:1027A000B3858C919185892B8C9388EC90E00E9465
:1027B0003F130895A7E0B0E0E0EEF3E10C94BB17FF
:1027C0007C014B01642F3901402F20E00E948413CB
:1027D00087010F5B1F4FF80110826701F2E4CF0EF3
:1027E000D11CF60110825701F3E4AF0EB11CF501C4
:1027F0001082F70177866686512CF701808558167E
:1028000050F5652C712CF401E60DF71D6081CE01A9
:1028100001960E9447132F81F701E60DF71D218BCA
:1028200089819A81F301EE0FFF1FEE0DFF1D92A328
:1028300081A38332910511F4F80108C08632910515
:1028400011F4F60103C0899721F4F5018081822BF0
:1028500080835394D2CF2796EFE00C94D717A0E053
:10286000B0E0E5E3F4E10C94BD17EC015B016C0111
:1028700081E4C80ED11CF60180807E01F2E4EF0EE7
:10288000F11CF70170808E010D5B1F4FF8019080E5
:1028900080E09885891748F4F501E80FF11DE80FED
:1028A000F11D118210828F5FF4CF84B1F601908107
:1028B000892B84B987B1F7019081892B87B98AB1B7
:1028C000F8019081892B8AB985B1F6019081892B15
:1028D00085B988B1F7019081892B88B98BB1F8014E
:1028E0009081892B8BB98AE090E00E943F1394B1CC
:1028F000F60180818095892384B997B1F7018081A1
:102900008095892387B99AB1F801808180958923C0
:102910008AB995B1F60180818095892385B998B1EE
:10292000F70180818095892388B99BB1F801808166
:10293000809589238BB9E090B000D090B100809150
:10294000B00083608093B00082E08093B10040913A
:10295000B20080E090E02E853F858217930720F536
:10296000C090B2002C2D241B820F911D03B10811C1
:1029700032C0F6B0F7102FC029B129112CC010C0F9
:10298000212F30E0A901440F551FF501E40FF51F79
:1029900060817181672B21F11F5F2885121780F3F9
:1029A0007F2C802E4C2DD7CFE092B000D092B1007A
:1029B00020E08885281730F5F501E20FF11DE20FC0
:1029C000F11D80819181892B21F48E859F859183D2
:1029D00080832F5FEECF03B1F6B099B010E0DDCF6A
:1029E000DE01A40FB51F91960D90BC91A02D4C91C6
:1029F000DE01A20FB31F51962C91422369F69183F9
:102A00008083CACFCDB7DEB7EDE00C94D917EF9233
:102A1000FF920F931F93CF93DF93FC019B01F090E4
:102A20007C0000917A0047B118B180917A0086FD50
:102A3000FCCF80E09085891748F4D901A80FB11D1B
:102A4000A80FB11D1D921C928F5FF4CF97B182A188
:102A50008095892387B998B182A18095892388B907
:102A600087E880937A00E12C81A1E81610F0E12C30
:102A700029C050E08085581718F5A52FB0E0EF0168
:102A8000CA0FDB1F8989806480937C0080917A0063
:102A9000806480937A0080917A0086FDFCCF6091FB
:102AA000780070917900AA0FBB1FA20FB31F8D9100
:102AB0009C911197860F971F8D939C935F5FDACF40
:102AC000E394D2CF8085E816A0F4E901CE0DD11DA4
:102AD000CE0DD11D61A170E0CB0195958795A881A0
:102AE000B9818A0F9B1F0E942D1779836883E39415
:102AF000E9CFF0927C0000937A0018B947B9CDB7BE
:102B0000DEB7E6E00C94E017A0E2B0E0EAE8F5E119
:102B10000C94C3178C017B01D42E8FEF840F82306D
:102B200018F4C8010E94C613D80150968C91B701C1
:102B3000811110C0C8010E942F14C8010E94B11356
:102B4000B2E0DB123AC0BE016F5F7F4FC8010E9446
:102B50002F140FC0C8010E940715C8010E94B113AD
:102B6000E2E0DE122AC0BE016F5F7F4FC8010E9403
:102B7000071540E0F80180854817F8F4842F90E0AD
:102B8000880F991FF701E80FF91F21E030E02C0FA3
:102B90003D1F820F931FD8011E962D913C911F97C8
:102BA000DC018D919C91281B390B80819181820FD2
:102BB000931F918380834F5FDDCFA096E7E00C9455
:102BC000DF17A0E0B0E0E7EEF5E10C94C117EC01EF
:102BD0008B01B42E842F8D7F51F48C819D81892BA4
:102BE00009F497C08E819F81892B09F492C08FEFE1
:102BF0008B0D823050F488819981892B09F489C02A
:102C00008A819B81892B09F484C04B2DB801CE01A8
:102C10000E948415780100E010E0C12CD12C888539
:102C200090E0C816D9060CF074C081E0B8120AC052
:102C3000EA81FB81E00FF11F0190F081E02DA88176
:102C4000B9810DC08C819D812E813F81B1100CC056
:102C5000F901E00FF11F0190F081E02DDC01A00FE0
:102C6000B11F8D919C9128C0FC01E00FF11F4081A4
:102C70005181E881F981E00FF11F80819181EE851A
:102C8000FF854817590710F4CF0104C08E0F9F1F0E
:102C9000841B950BD901A00FB11F2D913C91AA81E6
:102CA000BB81A00FB11F4D915C912417350720F017
:102CB000E40FF51FE21BF30BE81BF90BA9F0D7019A
:102CC0002D913C9140E050E0281B390B41095109FE
:102CD000A8EEB3E00E94A5179F0140E050E00E94DB
:102CE000771737FD0AC002C020E030E0293EB3E08C
:102CF0003B072CF028EE33E002C020E030E0F70183
:102D0000219331937F01FFEFCF1ADF0A0E5F1F4F30
:102D100086CFCDB7DEB7E9E00C94DD17A0E0B0E0D8
:102D2000E4E9F6E10C94B817EC018B01822E0E94C5
:102D3000E1152884E801412C512C320100E010E01B
:102D4000C12CD12C7601312C912C58EEA52E53E0BC
:102D5000B52E921421F1E991F991882021F0C50155
:102D60008E1B9F0BFC01E93CF10524F4E333F105D4
:102D700074F002C033243394DF01A30192010E9456
:102D8000B017C60ED71EE81EF91E0E0F1F1F939414
:102D900098EE490E93E0591E611C711CDACF311078
:102DA0001EC0492D50E04150510924EF31E0429FAF
:102DB000C001439F900D529F900D11242091070256
:102DC0003091080228173907B4F088EE93E0489F45
:102DD0009001499F300D589F300D11240EC098016D
:102DE00040E050E0C701B6010E9455173093080239
:102DF0002093070202C020E030E0C901CDB7DEB762
:102E0000E2E10C94D417CF93DF93EC018A819B818C
:102E1000009711F00E948A188E819F81009711F00F
:102E20000E948A1888819981009711F00E948A185F
:102E30008C819D81009711F00E948A18DF91CF91BB
:102E40000895991B79E004C0991F961708F0961B06
:102E5000881F7A95C9F780950895AA1BBB1B51E17D
:102E600007C0AA1FBB1FA617B70710F0A61BB70BFA
:102E7000881F991F5A95A9F780959095BC01CD019F
:102E8000089597FB072E16F4009407D077FD09D01C
:102E90000E942D1707FC05D03EF4909581959F4F19
:102EA0000895709561957F4F0895A1E21A2EAA1B8F
:102EB000BB1BFD010DC0AA1FBB1FEE1FFF1FA217EA
:102EC000B307E407F50720F0A21BB30BE40BF50BE7
:102ED000661F771F881F991F1A9469F76095709570
:102EE000809590959B01AC01BD01CF010895052E01
:102EF00097FB1EF400940E948E1757FD07D00E9486
:102F0000551707FC03D04EF40C948E17509540953E
:102F1000309521953F4F4F4F5F4F08959095809585
:102F2000709561957F4F8F4F9F4F0895A29FB0017D
:102F3000B39FC001A39F700D811D1124911DB29FED
:102F4000700D811D1124911D08950E949617A59F53
:102F5000900DB49F900DA49F800D911D1124089594
:102F6000B7FF0C94A5170E94A517821B930B089519
:102F70002F923F924F925F926F927F928F929F9289
:102F8000AF92BF92CF92DF92EF92FF920F931F9377
:102F9000CF93DF93CDB7DEB7CA1BDB0B0FB6F89428
:102FA000DEBF0FBECDBF09942A88398848885F8468
:102FB0006E847D848C849B84AA84B984C884DF80D9
:102FC000EE80FD800C811B81AA81B981CE0FD11DBD
:102FD0000FB6F894DEBF0FBECDBFED010895EE0F22
:102FE000FF1F0590F491E02D0994CF93DF93823079
:102FF000910510F482E090E0E091A402F091A50226
:1030000020E030E0C0E0D0E0309711F14081518104
:1030100048175907C0F04817590761F48281938116
:10302000209719F09B838A832BC09093A5028093ED
:10303000A40226C02115310519F04217530718F4D0
:103040009A01BE01DF01EF010280F381E02DDCCFA8
:103050002115310509F1281B390B2430310590F475
:1030600012968D919C9113976115710521F0FB01CA
:103070009383828304C09093A5028093A402FD01F0
:10308000329644C0FD01E20FF31F819391932250C9
:1030900031092D933C933AC02091A2023091A302B2
:1030A000232B41F420911001309111013093A302A0
:1030B0002093A20220910E0130910F0121153105BC
:1030C00041F42DB73EB74091120150911301241BDA
:1030D000350BE091A202F091A302E217F307A0F4EE
:1030E0002E1B3F0B2817390778F0AC014E5F5F4F5E
:1030F0002417350748F04E0F5F1F5093A3024093EB
:10310000A2028193919302C0E0E0F0E0CF01DF9151
:10311000CF9108950F931F93CF93DF93009709F4F6
:103120008CC0FC013297138212820091A40210918C
:10313000A5020115110581F420813181820F931FB1
:103140002091A2023091A3022817390779F5F09354
:10315000A302E093A20271C0D80140E050E0AE1794
:10316000BF0750F412962D913C911397AD01211594
:10317000310509F1D901F3CF9D01DA0133832283AF
:1031800060817181860F971F8217930769F4EC01A4
:1031900028813981260F371F2E5F3F4F31832083CF
:1031A0008A819B8193838283452B29F4F093A50226
:1031B000E093A40242C01396FC93EE931297ED01A4
:1031C000499159919E01240F351FE217F30771F4BD
:1031D00080819181840F951F029611969C938E9306
:1031E0008281938113969C938E931297E0E0F0E096
:1031F000D80112968D919C911397009719F0F801C0
:103200008C01F6CF8D919C9198012E5F3F4F820FDC
:10321000931F2091A2023091A3022817390769F465
:10322000309729F41092A5021092A40202C01382D2
:1032300012821093A3020093A202DF91CF911F91FB
:103240000F910895AEE0B0E0E8E2F9E10C94C61702
:103250000D891E8986E08C831A8309838FEF9FE78F
:103260009E838D83AE01475E5F4F6F89788DCE015F
:1032700001960E9445192F813885F801E20FF31F4E
:1032800010822E96E4E00C94E217ACE0B0E0EBE4A0
:10329000F9E10C94B8177C016B018A01FC011782DB
:1032A0001682838181FFBDC1CE0101964C01F701D9
:1032B0009381F60193FD859193FF81916F0188239E
:1032C00009F4ABC1853239F493FD859193FF819167
:1032D0006F01853229F4B70190E00E942D1BE7CFE2
:1032E000512C312C20E02032A0F48B3269F030F4E4
:1032F000803259F0833269F420612CC08D3239F06C
:10330000803339F4216026C02260246023C0286005
:1033100021C027FD27C030ED380F3A3078F426FF62
:1033200006C0FAE05F9E300D1124532E13C08AE0D0
:10333000389E300D1124332E20620CC08E3221F4C1
:1033400026FD6BC1206406C08C3611F4206802C0D3
:10335000883641F4F60193FD859193FF81916F01C9
:103360008111C1CF982F9F7D9554933028F40C5F25
:103370001F4FFFE3F9830DC0833631F0833771F0BF
:10338000833509F05BC022C0F801808189830E5F1C
:103390001F4F44244394512C540115C03801F2E0CE
:1033A0006F0E711CF801A080B18026FF03C0652D4F
:1033B00070E002C06FEF7FEFC5012C870E94221BD7
:1033C0002C0183012C852F77222E17C03801F2E0C3
:1033D0006F0E711CF801A080B18026FF03C0652D1F
:1033E00070E002C06FEF7FEFC5012C870E94171BB2
:1033F0002C012C852068222E830123FC1BC0832DE9
:1034000090E048165906B0F4B70180E290E00E94BF
:103410002D1B3A94F4CFF50127FC859127FE81916D
:103420005F01B70190E00E942D1B31103A94F1E04A
:103430004F1A51084114510471F7E5C0843611F058
:10344000893639F5F80127FF07C0608171818281D3
:1034500093810C5F1F4F08C060817181072E000CA3
:10346000880B990B0E5F1F4F2F76722E97FF09C0A6
:1034700090958095709561957F4F8F4F9F4F2068F5
:10348000722E2AE030E0A4010E94651BA82EA81825
:1034900044C0853729F42F7EB22E2AE030E025C0C3
:1034A000F22FF97FBF2E8F36C1F018F4883579F0EE
:1034B000B4C0803719F0883721F0AFC02F2F2061BA
:1034C000B22EB4FE0DC08B2D8460B82E09C024FF2F
:1034D0000AC09F2F9660B92E06C028E030E005C0D4
:1034E00020E130E002C020E132E0F801B7FE07C081
:1034F00060817181828193810C5F1F4F06C0608162
:10350000718180E090E00E5F1F4FA4010E94651B57
:10351000A82EA818FB2DFF777F2E76FE0BC0372D27
:103520003E7FA51450F474FE0AC072FC08C0372D0B
:103530003E7E05C0BA2C372D03C0BA2C01C0B52C75
:1035400034FF0DC0FE01EA0DF11D8081803311F4BE
:10355000397E09C032FF06C0B394B39404C0832FF0
:10356000867809F0B39433FD13C030FF06C05A2C9F
:10357000B31418F4530C5B18B32CB31468F4B701EC
:1035800080E290E03C870E942D1BB3943C85F5CFF0
:10359000B31410F43B1801C0312C34FF12C0B70132
:1035A00080E390E03C870E942D1B3C8532FF17C0D2
:1035B00031FD03C088E790E002C088E590E0B701E4
:1035C0000CC0832F867859F031FF02C08BE201C016
:1035D00080E237FD8DE2B70190E00E942D1BA5141B
:1035E00038F4B70180E390E00E942D1B5A94F7CF86
:1035F000AA94F401EA0DF11D8081B70190E00E94C8
:103600002D1BA110F5CF332009F451CEB70180E274
:1036100090E00E942D1B3A94F6CFF70186819781A6
:1036200002C08FEF9FEF2C96E2E10C94D417FC01BF
:103630000590615070400110D8F7809590958E0FDD
:103640009F1F0895FC016150704001900110D8F750
:10365000809590958E0F9F1F08950F931F93CF9382
:10366000DF93FB01238121FD03C08FEF9FEF28C073
:1036700022FF16C0468157812481358142175307A6
:1036800044F4A081B1819D012F5F3F4F318320839E
:103690008C93268137812F5F3F4F3783268310C05D
:1036A000EB01092F182F0084F185E02D0995892B56
:1036B000E1F68E819F8101969F838E83812F902FCB
:1036C000DF91CF911F910F910895FA01AA27283019
:1036D00051F1203181F1E8946F936E7F6E5F7F4FDF
:1036E0008F4F9F4FAF4FB1E03ED0B4E03CD0670F5B
:1036F000781F891F9A1FA11D680F791F8A1F911DAE
:10370000A11D6A0F711D811D911DA11D20D009F4FD
:1037100068943F912AE0269F11243019305D31933F
:10372000DEF6CF010895462F4770405D4193B3E028
:103730000FD0C9F7F6CF462F4F70405D4A3318F0CF
:10374000495D31FD4052419302D0A9F7EACFB4E080
:10375000A6959795879577956795BA95C9F7009738
:103760006105710508959B01AC010A2E06945795D9
:10377000479537952795BA95C9F7620F731F841F30
:10378000951FA01D089511E0CAE9D1E004C0FE0113
:103790000E94EF172196CB39D107C9F7F894FFCFD4
:1037A00088130F00F4010400D00704010802000090
:1037B000A6022000CE02C902AC02C102BA02B402C3
:1037C000A602FF9C01B501CF01EA010702260247CC
:1037D0000269028E02B502DE020A030E0F101112F8
:1037E0006D560049522D0020204300202020005219
:1037F00065642020003E63333200477265656E00C9
:10380000200000010203030405FFCE01E6053E058A
:10381000DE0133022603730325732D2564004C005B
:10382000520042616420636D64006F376C3136630F
:02383000000096
:00000001FF
