:100000000C9457000C9474000C9474000C947400BD
:100010000C9474000C9474000C9474000C94740090
:100020000C9474000C94970A0C9474000C94740053
:100030000C9474000C9441060C9474000C9474009D
:100040000C9474000C9474000C94CA090C94720AF9
:100050000C9474000C9474000C9474000C94740050
:100060000C9474000C947400666F6C6C6F776572FE
:10007000004C696E650033F720526F626F74002088
:10008000506F6C6F6C7500000000000000001F1FB7
:100090001F1F1F1F1F4C3136206364656772656721
:1000A00034003E6733323E3E633332005B0B112433
:1000B0001FBECFEFD8E0DEBFCDBF11E0A0E0B1E0C2
:1000C000E2EEF4E202C005900D92A437B107D9F731
:1000D00022E0A4E7B1E001C01D92A43DB207E1F720
:1000E0000E94DA010C9464120C9400000E947909B9
:1000F0009091E101891771F0E92FF0E0E250FE4F95
:1001000080819F5F943618F49093E10108951092D6
:10011000E10108958EE5089560E087E890E00E948F
:10012000720761E088E890E00E94720762E089E867
:1001300090E00E94720763E08AE890E00E947207F4
:1001400064E08BE890E00E94720765E08CE890E044
:100150000E94720766E08DE890E00E9472070C949E
:10016000E507BF92CF92DF92EF92FF920F931F931A
:10017000CF93DF93CDB7DEB72A970FB6F894DEBFE3
:100180000FBECDBF8C017C018AE0E80EF11C8AE035
:10019000B82E95E6C92ED12CE4E1F1E0DE011196EE
:1001A0008B2D01900D928A95E1F7F8018191919143
:1001B0008F01B6010E947310E1E0F0E0EC0FFD1F2B
:1001C000E60FF71F80810E9475070E151F0521F7A6
:1001D0002A960FB6F894DEBF0FBECDBFDF91CF9148
:1001E0001F910F91FF90EF90DF90CF90BF900895F7
:1001F0000F931F93CF93DF93CDB7DEB72A970FB638
:10020000F894DEBF0FBECDBF80ED97E00E94570B84
:100210000E948C008FE790E00E94050861E080E07A
:100220000E947D0886E790E00E94050882EA90E03F
:100230000E94B20688EE93E00E94DF0A0E94E50762
:1002400081E790E00E94050861E080E00E947D085F
:1002500088E690E00E94050888EE93E00E94DF0A9D
:1002600080E10E94760981111AC00E9487038C01E7
:100270000E94E507B801110F880B990B0E945A08DC
:1002800086E591E00E94F40761E080E00E947D082D
:1002900089E591E00E94F40784E690E0DFCF80E1F9
:1002A0000E94620988EE93E00E94DF0A0CEE1FEFC5
:1002B0000832110528F068ED7FEF88E290E004C075
:1002C00068E270E088ED9FEF0E94330981E00E94B0
:1002D0001B0B84E190E00E94DF0A0F5F1F4F0C337D
:1002E000110531F760E070E080E090E00E94330992
:1002F00080E10E94760981111AC061E0CE01019669
:100300000E94210B8C010E94E507B80180E090E07B
:100310000E945A0861E080E00E947D08CE010196AB
:100320000E94B10084E690E00E94DF0AE1CF80E104
:100330000E9462090E94E50781E691E00E94F407AD
:1003400085E990E00E94B2060E94A1068111FCCFCF
:100350002A960FB6F894DEBF0FBECDBFDF91CF91C6
:100360001F910F9108950F931F93CF93DF931092D6
:10037000E801C8EED1E08E01085E11400E947600CF
:100380008A3021F08E3511F08993F5CFF801E951CB
:10039000FE4F1082C801DF91CF911F910F910895F8
:1003A000FC0101900020E9F73197BF01681B790B30
:1003B0000C944E0ACF93DF93CDB7DEB764970FB698
:1003C000F894DEBF0FBECDBF0E94F8000E94E50783
:1003D00060E072EC81E090E00E941E0A64E68EEF1D
:1003E00091E00E94C7090E94E50785E0E8E2F1E09C
:1003F000DE011B9601900D928A95E1F785E0FE01E2
:100400007096DF01982F1D929A95E9F7EEE1F1E0E1
:10041000DE011196982F01900D929A95E1F7FE0159
:100420003696DF011D928A95E9F7C12CD12C760111
:1004300061E086EC92E00E94210B8C0160E085E097
:100440000E947D08B80180E090E00E945A0860E0B8
:1004500080E00E947D0886EC92E00E94B1000E943C
:10046000B3011816190664F461E083E00E947D0868
:10047000CE010B960E94F407CE0101960E94D00196
:1004800061E080E00E947D08C701B6010E945A0821
:10049000043FB1E01B07D8F460E070E080E090E03A
:1004A0000E94330919826FE671E0CE0101960E9425
:1004B0005D126FE671E088EE91E00E945412892B84
:1004C00009F04CC06EE170E080E090E03BC00C3A77
:1004D0008DE01807F0F419826EE171E0CE0101960B
:1004E0000E945D12003D97E0190728F46EE170E06C
:1004F00084E190E007C0003D174031F064E170E016
:100500008EE190E00E943309599A519A5F9A579A66
:1005100025C060E070E080E090E00E94330919821D
:1005200061E771E0CE0101960E945D1261E771E022
:1005300088EE91E00E945412892B81F460E070E013
:100540008EE190E00E94330982E796E00E94DF0A84
:1005500060E070E080E090E00E9433090E94E507CF
:10056000BFEFCB1ADB0AEB0AFB0A62CFECE7F0E045
:1005700080818F7D80830895811103C00E94B6021F
:10058000089580917C00806280937C000895809122
:100590007C0085FB882780F908950E94C702882384
:1005A00021F08091790090E00895809178009091F9
:1005B000790008958032A0F497E890937A009091A2
:1005C0007C00662311F0906C02C09F779064907E4F
:1005D000982B90937C0080917A00806480937A00BD
:1005E0000895A0E0B0E0E7EFF2E00C94F410EB0126
:1005F00060E00E94DA0280917A0086FDFCCF8E01D5
:10060000C12CD12C760180917A00806480937A008D
:1006100080917A0086FDFCCF0E94CD02C80ED91EC3
:10062000E11CF11C015011090115110561F7CE0102
:1006300096958795C034D10538F48C0D9D1DBE016B
:100640000E947310CB010EC0A7019601280F391F1D
:10065000411D511DCA01B9019E0140E050E00E94B8
:100660008710C901CDB7DEB7E8E00C941011CF9226
:10067000DF92EF92FF92A0910001B09101019C01E5
:100680000E94C8106B017C010E94C702882359F0A8
:10069000C701B60161587F4F8F4F9F4F2FEF30E05A
:1006A00040E050E00AC0C701B60161507E4F8F4F55
:1006B0009F4F2FEF33E040E050E00E948710C901C8
:1006C000FF90EF90DF90CF9008950E94F1020E947A
:1006D000370308951F93CF93DF930E94C702182F0B
:1006E0000E94B6026AE070E086E00E946503EC01B9
:1006F000812F0E94BC02CE01880F991F8C0F9D1F75
:10070000019696958795DF91CF911F9108950E944C
:100710006A03089590917901E0917401F091750157
:10072000992311F0849101C080812FEB280F2A3189
:1007300010F4805E0895803249F49F012F5F3F4F8F
:100740003093750120937401EF2B31F708951F93B7
:10075000CF93DF930E948A03C0E0D0E01AE090EDCF
:10076000980F9A30B8F49E01129FE001139FD00DAC
:100770001124C80FD11D87FDDA95E097809174018F
:1007800090917501019690937501809374010E9478
:100790008A03E5CFCE01DF91CF911F91089510928A
:1007A0006F0083E28093800081E18093810010924A
:1007B000820080E197E290938900809388001092F4
:1007C0008B0010928A00229A789408958F929F92BB
:1007D000AF92BF92DF92EF92FF920F931F93CF934E
:1007E000DF935C018B01D42E80917601811105C0CD
:1007F00081E0809376010E94CF0310920B01B7FE37
:1008000005C0E894B7F82AE0F22E02C0FF24F39462
:10081000E09081002E2D287FE22E48ECF49EC0014E
:1008200011248A159B05E0F4E50151E1A51657E274
:10083000B50610F0C0E1D7E2BE017695679580E07D
:1008400090E06058794687469F4F4E01A12CB12C0D
:10085000A50194010E94871059018E2D816024C04A
:10086000C8E2FC9EC02D1124D0E0CA15DB0508F4B7
:10087000E501BE01769567959E0140E050E08AE073
:10088000F81207C080E090E0605E734481449F4F9F
:1008900006C080E090E060537D4E8C4E9F4F0E94DA
:1008A000871059018E2D8260882E2AE0F21207C02F
:1008B000CE0105966AE070E00E947310EB01C83E1D
:1008C00043E0D40759F09801DE010E94C81028EED9
:1008D00033E040E050E00E94A910890110926F00BF
:1008E00080928100B0928900A092880020918800B7
:1008F000309189004D2D403108F04FE080E190E0CB
:10090000841B9109A90102C0569547958A95E2F783
:1009100050938B0040938A0010937C0100937B01DD
:1009200086B38FEF86BB81E080936F00DF91CF911C
:100930001F910F91FF90EF90DF90BF90AF909F902D
:100940008F900895CF93DF93EB018F3F11F041110A
:1009500005C040E0BE0188EE93E043C0813130F035
:1009600050EF580F503618F05FE501C050E0852F6A
:100970006CE00E946710682F74EF760390011124D9
:10098000250F311D2C30310540F4F901EE0FFF1F0A
:10099000EE5CFE4F2081318102C020E030E08730E4
:1009A00081F0082E02C0220F331F0A94E2F7823032
:1009B00028F0C90105966AE070E00CC0C9019058A2
:1009C0000CC0C90136E0880F991F3A95E1F70296ED
:1009D00065E070E00E947310CB01403108F04FE0F9
:1009E000BE010E94E603DF91CF910895A2E0B0E03E
:1009F000ECEFF4E00C94EC1090900A0180917801F7
:100A0000882321F060917701611117C077247394D6
:100A1000B0ECAB2EBDE5BB2E1AE0612E04E0802EBB
:100A200080EDC82E87E0D82E94E0E92EF12C04EF5B
:100A300011E02FE0422E512C15C070E040E088EE0E
:100A400093E00E94E6031092770117C18636D4F531
:100A5000813609F4A9C07CF58C3309F460C08E336B
:100A600081F493940E948A0320917401309175015E
:100A70002F5F3F4F3093750120937401853631F716
:100A800052C0813209F08BC080920A01D0920901D4
:100A9000C0920801F0920701E0920601109305014F
:100AA00000930401509203014092020110927801D8
:100AB000A4E09A2ED7CF8336A1F10CF478C010E0D1
:100AC00082E077C08D36C1F194F4873691F174F1EC
:100AD0008C3609F064C00E94A703BC019093070103
:100AE00080930601809108019091090151C08237DD
:100AF000C9F14CF48F3609F052C00E94A703982E1A
:100B000080930A01AFCF843781F1863709F047C05F
:100B10000E94A7039093030180930201A3CF9A94AC
:100B2000A1CF10E020C010E084E043C010E085E0D9
:100B300040C010E087E03DC00E948A038C3619F463
:100B40001092780104C07092780110927701209180
:100B50007401309175012F5F3F4F309375012093E1
:100B6000740180CF11E080E024C00E94A703BC0183
:100B7000C5010E947310669EC001679E900D1124EE
:100B8000909309018093080160910601709107011B
:100B90000E947310709305016093040163CF10925B
:100BA00075011092740169C010E089E002C010E084
:100BB0008BE0082F9CE0999E000D11240E948A036F
:100BC000982F977F933261F42091740130917501D1
:100BD0002F5F3F4F30937501209374010F5FEECF6D
:100BE0008D3271F420917401309175012F5F3F4F68
:100BF000309375012093740101500E948A03F0CF55
:100C000060910401709105018153883050F4E090A7
:100C10000801F09009010E94A703BC01C7010E94CE
:100C200073107B01F694E79469837A830E948A03A8
:100C300069817A818E3269F4209174013091750155
:100C40002F5F3F4F30937501209374016E0D7F1D10
:100C5000E9CF80917801882339F09B01369527955B
:100C600020937701621B710940910201112311F059
:100C70008FEF01C0802F0E94A2042296E0E10C9425
:100C800008111F920F920FB60F9211242F933F93CA
:100C90004F935F936F937F938F939F93AF93BF9384
:100CA000EF93FF9380917B0190917C019C012150F7
:100CB000310930937C0120937B01892B11F510922F
:100CC0006F00789480918100887F8160809381009B
:100CD00080E197E2909389008093880010928B00C6
:100CE00010928A0081E080930B01809174019091B1
:100CF0007501892B31F080917A01811102C00E9427
:100D0000F604FF91EF91BF91AF919F918F917F91E9
:100D10006F915F914F913F912F910F900FBE0F9068
:100D20001F90189580910B01882349F081E0209154
:100D3000740130917501232B19F480E0089581E04E
:100D400008950E949206089510926F009093750185
:100D50008093740181E080937901109277010E9461
:100D6000F60408950E94A406089581E090E06F9330
:100D700064E06A95F1F76F910197C9F708950F93B1
:100D80001F93CF93DF931AB157985A98289AC0E0CF
:100D9000D0E00E94B5065C9A0E94B50609B15C9845
:100DA0000E94B5065C9A0E94B5065C98249607FFDF
:100DB00010C0AE0160E070E080917D0190917E01F5
:100DC000A0917F01B0918001481759076A077B07FE
:100DD00000F31AB9DF91CF911F910F91089595B14A
:100DE000282F217030E0220F331F482F467068E013
:100DF000469FA0011124242B9D7C292B25B99BB152
:100E000088708295807F9F77892B8BB95C9A0E942E
:100E1000B5065C980E94B5060895A0E0B0E0E3E155
:100E2000F7E00C94F510C82FD62EE42E8091E20145
:100E3000811105C081E08093E2010E947D070E943C
:100E4000BF0614B1D5B1FAB00BB12898DD2011F06E
:100E50005A9A01C05A9894B1926394B9579A81E012
:100E6000E81629F08C2F82958F700E94EF068C2F48
:100E70008F700E94EF06FAB80BB914B9D5B9CDB787
:100E8000DEB7E7E00C94111142E060E00E940D072C
:100E9000089542E061E00E940D070895A1E0B0E0EE
:100EA000E4E5F7E00C94F6108C01660F660F660F10
:100EB000E12CF12C8E2D860F806469830E944407FB
:100EC000F801EE0DFF1D84910E9449078FEFE81A8B
:100ED000F80A6981E8E0EE16F10461F72196E6E090
:100EE0000C9412110E944E0708950E94490708951C
:100EF00041E060E00E940D07089580E197E2A0E0E4
:100F0000B0E080937D0190937E01A0937F01B09328
:100F10008001529A209A549A8EE190E00E94DF0A52
:100F200083E00E94780786E090E00E94DF0A83E079
:100F30000E94780782E090E00E94DF0A83E00E942E
:100F4000780782E090E00E94DF0A82E00E94780742
:100F500082E090E00E94DF0A88E20E94440788E075
:100F60000E94440781E00E94440786E00E944407F3
:100F70008CE00E944407089581E00E94440780911C
:100F8000830190918401892BF9F060E0A0E2262F83
:100F900030E070910C0180910D0190E00197789FF5
:100FA000A001799F500D1124241735074CF4E091CE
:100FB0008301F0918401E20FF31FA0836F5FE7CFFD
:100FC000109281011092820108950E94BC07089539
:100FD000CF93DF93EC018991882319F00E94490790
:100FE000FACFDF91CF9108950E94E8070895CF933B
:100FF000DF93EC01FE018491882321F00E944907D0
:101000002196F8CFDF91CF9108950E94F7070895B8
:10101000AAE0B0E0EEE0F8E00C94F4101AE05AE038
:10102000C52ED12CE12CF12C062FA70196010E9490
:101030008710CA01B9011150E1E0F0E0EC0FFD1F8B
:10104000E10FF11D005D2AE0629F00191124008369
:10105000611571058105910539F71A3058F4E1E001
:10106000F0E0EC0FFD1FE10FF11D80810E944907A8
:101070001F5FF3CF2A96E8E00C941011CF92DF9215
:10108000EF92FF926B017C0197FF0BC0F094E0940C
:10109000D094C094C11CD11CE11CF11C8DE20E94B3
:1010A0004907C701B6010E940808FF90EF90DF9042
:1010B000CF9008950E943E080895A5E0B0E0E3E6D1
:1010C000F8E00C94F910182F80E8898380EC8A836B
:1010D00084E98B8384ED8C83FE01E60FF11D818111
:1010E000810F6D830E944407109381016D8160938D
:1010F00082012596E3E00C9415110E945D08089585
:10110000883058F491E001C0990F8A95EAF7892F49
:10111000AAE2B0E0EBE2F0E021C08E3060F498EF9C
:10112000980F81E001C0880F9A95EAF7A4E2B0E039
:10113000E5E2F0E013C0853160F492EF980F81E0B2
:1011400001C0880F9A95EAF7A7E2B0E0E8E2F0E084
:1011500005C080E0A0E0B0E0E0E0F0E06F3F19F40F
:101160009081982709C0662319F09081982B04C0BC
:101170002081982F9095922390839C91982B9C93FB
:10118000089583EF8093B00084BD82E08093B10026
:1011900085BD1092B4001092B30018BC17BC60E07B
:1011A00086E00E94800860E085E00E94800860E0A0
:1011B0008BE00E94800860E083E00E948008089530
:1011C0008091E301811105C081E08093E3010E94D9
:1011D000C1080895CF93DF93EC010E94E008D7FF88
:1011E00005C0D195C195D10981E001C080E0CF3F14
:1011F000D10519F014F0CFEFD0E0882319F018BC16
:10120000C7BD02C0C8BD17BCDF91CF910895CF9371
:10121000DF93EC010E94E008D7FF05C0D195C1958E
:10122000D10981E001C080E0CF3FD10519F014F071
:10123000CFEFD0E0882329F01092B400C093B30020
:1012400004C0C093B4001092B300DF91CF91089511
:10125000CF93DF93EB010E94EA08CE010E940709B9
:10126000DF91CF9108950E942809089584B18D7C63
:1012700084B985B1826385B985E090E06F9364E0BD
:101280006A95F1F76F910197C9F708958091E4018C
:10129000811105C081E08093E4010E943609089520
:1012A000CF93C82F0E94460983B18C23E9F38AE0CB
:1012B00090E00E94DF0A83B18C23B1F383B18C23C9
:1012C000CF9108950E9450090895A1E0B0E0EBE6A7
:1012D000F9E00C94FA1089830E94460993B1909525
:1012E000898189232196E2E00C9416110E946509F8
:1012F0000895809187010895282F30E09AE0899F12
:10130000F0011124EB57FE4F80859185009721F065
:1013100052814481541780F08AE0829FF001839FBC
:10132000F00D1124EB57FE4F9281848198130EC06B
:10133000858181110AC008954281DC01A40FB11D8D
:101340006C9382818F5F8283E7CF128208959091A0
:10135000C1009F779093C1009AE0899FF00111240A
:10136000EB57FE4F7187608712824483258380810B
:10137000811105C08091C10080688093C1000895EB
:10138000462F21E0BC0180E00E94A70908950E9439
:10139000C00908951F920F920FB60F9211242F9338
:1013A0003F934F935F936F937F938F939F93AF93ED
:1013B000BF93EF93FF936091C60080E00E947C0989
:1013C000FF91EF91BF91AF919F918F917F916F911D
:1013D0005F914F913F912F910F900FBE0F901F90F3
:1013E00018959AE0899FF0011124EB57FE4F8681F2
:1013F0009781892B59F091818381981738F48081E6
:10140000811104C08091C100806203C08091C1003D
:101410008F7D8093C10008959AE0899FF001112487
:10142000EB57FE4F9081911102C098E901C098E1FD
:101430009093C1000E94F10978940895CF92DF92B1
:10144000EF92FF926B017C0180E00E940C0AA8EFF2
:10145000BFEFA70196010E94E510735D8E4C9E4F71
:10146000E4E0220F331F441F551FEA95D1F70E9475
:1014700087103093C5002093C400FF90EF90DF9059
:10148000CF90089590938C0180938B0110928601E8
:101490006093880180E00E94F10908950E94420A49
:1014A00008959AE0899FF0011124EB57FE4F2681A1
:1014B00037812115310541F041819381491720F48D
:1014C0009091C00095FD03C00E94F109089591819B
:1014D000D901A90FB11D9C919093C60091819F5F86
:1014E0009183F2CF1F920F920FB60F9211242F9378
:1014F0003F934F935F936F937F938F939F93AF939C
:10150000BF93EF93FF9380E00E94510AFF91EF9108
:10151000BF91AF919F918F917F916F915F914F910B
:101520003F912F910F900FBE0F901F9018952F9203
:101530008F939F932FB6809196019091970101967A
:10154000809396019093970190E080919801891F74
:1015500080939801909190019C5F9093900180916D
:101560008F0180519742C0F09093900180938F013A
:1015700080919101909192010196809391019093B5
:10158000920190E080919301891F80939301809153
:101590009401891F809394012FBE9F918F912F906A
:1015A000189528EE33E0019748F0F9016F9364E055
:1015B0006A95F1F76F913197C9F7F5CF08950E94B9
:1015C000D10A0895E0E7F0E080818E7F8083A0EB70
:1015D000B0E08C9183608C93A1EBB0E08C91807F24
:1015E0008C938C9182608C93B89A80818160808387
:1015F000789408958091E501811105C081E0809380
:10160000E5010E94E20A08950E94FA0AE0E7F0E08C
:1016100080818E7F808310929101109292011092AE
:101620009301109294011092900110928F01808189
:10163000816080830895682F89E991E00E94030FFB
:101640000895462F20E0BC0189E991E00E94D40F63
:1016500008950F93CF93DF9300D000D01F92CDB7A2
:10166000DEB79C0185E0EAE4F1E0DE01119601902D
:101670000D928A95E1F7662311F00FEF01C003E1A7
:1016800045E0BE016F5F7F4F89E991E00E94FB0B4F
:1016900089E991E00E94D20B0E94040B0F900F90F9
:1016A0000F900F900F90DF91CF910F91089560E010
:1016B0000E94290B089589E991E00E94491008953C
:1016C0006F9364E06A95F1F76F910197C9F70895F8
:1016D000FC011182108213821282158214821682FA
:1016E000683068F489E290E0918380838BE290E037
:1016F000938382838AE290E0958384831FC06E3057
:1017000070F483E290E09183808385E290E093839C
:10171000828384E290E09583848368500FC06531B2
:1017200098F486E290E09183808388E290E093834E
:10173000828387E290E0958384836E5081E001C0CC
:10174000880F6A95EAF786830895A7E0B0E0EBEA90
:10175000FBE00C94F8108C01FC01118210821382C2
:1017600012821582148217821682613118F080E18C
:10177000808702C0FC016087F801208B642FCE01B6
:1017800001960E94680B8F81F80181878B819C8173
:10179000938782878D819E81958784872796E4E051
:1017A0000C941411FC01A485B585109779F08C91E7
:1017B0009185892B8C93A285B3859C918185809599
:1017C00089238C9388EC90E00E94600B0895FC01C3
:1017D000A485B585109771F08C919185892B8C9398
:1017E000A285B3858C919185892B8C9388EC90E0B0
:1017F0000E94600B0895A7E0B0E0E1E0FCE00C94EB
:10180000ED107C014B01642F3901402F20E00E9434
:10181000A50B87010F5B1F4FF80110826701F2E4EF
:10182000CF0ED11CF60110825701F3E4AF0EB11CAC
:10183000F5011082F70177866686512CF7018085C5
:10184000581650F5652C712CF401E60DF71D6081DA
:10185000CE0101960E94680B2F81F701E60DF71D5E
:10186000218B89819A81F301EE0FFF1FEE0DFF1D81
:1018700092A381A38332910511F4F80108C0863246
:10188000910511F4F60103C0899721F4F5018081D7
:10189000822B80835394D2CF2796EFE00C940911CA
:1018A000A0E0B0E0E6E5FCE00C94EF10EC015B0199
:1018B0006C0181E4C80ED11CF60180807E01F2E447
:1018C000EF0EF11CF70170808E010D5B1F4FF801C8
:1018D000908080E09885891748F4F501E80FF11DA4
:1018E000E80FF11D118210828F5FF4CF84B1F601F1
:1018F0009081892B84B987B1F7019081892B87B9B1
:101900008AB1F8019081892B8AB985B1F60190815D
:10191000892B85B988B1F7019081892B88B98BB162
:10192000F8019081892B8BB98AE090E00E94600BCE
:1019300094B1F60180818095892384B997B1F7012C
:1019400080818095892387B99AB1F801808180953B
:1019500089238AB995B1F60180818095892385B95B
:1019600098B1F70180818095892388B99BB1F801EE
:101970008081809589238BB9E090B000D090B10030
:101980008091B00083608093B00082E08093B100CA
:101990004091B20080E090E02E853F85821793074A
:1019A00020F5C090B2002C2D241B820F911D03B195
:1019B000081132C0F6B0F7102FC029B129112CC080
:1019C00010C0212F30E0A901440F551FF501E40F8D
:1019D000F51F60817181672B21F11F5F2885121728
:1019E00080F37F2C802E4C2DD7CFE092B000D09288
:1019F000B10020E08885281730F5F501E20FF11DD0
:101A0000E20FF11D80819181892B21F48E859F85C4
:101A1000918380832F5FEECF03B1F6B099B010E0D1
:101A2000DDCFDE01A40FB51F91960D90BC91A02DC6
:101A30004C91DE01A20FB31F51962C91422369F6FF
:101A400091838083CACFCDB7DEB7EDE00C940B1144
:101A5000EF92FF920F931F93CF93DF93FC019B01B3
:101A6000F0907C0000917A0047B118B180917A0023
:101A700086FDFCCF80E09085891748F4D901A80F36
:101A8000B11DA80FB11D1D921C928F5FF4CF97B1AD
:101A900082A18095892387B998B182A180958923F5
:101AA00088B987E880937A00E12C81A1E81610F0CC
:101AB000E12C29C050E08085581718F5A52FB0E01B
:101AC000EF01CA0FDB1F8989806480937C008091BD
:101AD0007A00806480937A0080917A0086FDFCCF42
:101AE0006091780070917900AA0FBB1FA20FB31FFD
:101AF0008D919C911197860F971F8D939C935F5F9B
:101B0000DACFE394D2CF8085E816A0F4E901CE0DB8
:101B1000D11DCE0DD11D61A170E0CB0195958795AA
:101B2000A881B9818A0F9B1F0E94731079836883F3
:101B3000E394E9CFF0927C0000937A0018B947B99A
:101B4000CDB7DEB7E6E00C941211A0E2B0E0EBEA0C
:101B5000FDE00C94F5108C017B01D42E8FEF840FE7
:101B6000823018F4C8010E94E70BD80150968C917E
:101B7000B701811110C0C8010E94500CC8010E9419
:101B8000D20BB2E0DB123AC0BE016F5F7F4FC801DB
:101B90000E94500C0FC0C8010E94280DC8010E946D
:101BA000D20BE2E0DE122AC0BE016F5F7F4FC80198
:101BB0000E94280D40E0F80180854817F8F4842F32
:101BC00090E0880F991FF701E80FF91F21E030E03E
:101BD0002C0F3D1F820F931FD8011E962D913C9113
:101BE0001F97DC018D919C91281B390B808191817D
:101BF000820F931F918380834F5FDDCFA096E7E034
:101C00000C9411112F923F925F926F927F928F925C
:101C10009F92AF92BF92CF92DF92EF92FF920F937B
:101C20001F93CF93DF93CDB7DEB7C056D1090FB660
:101C3000F894DEBF0FBECDBF8C014B015A01522E6E
:101C4000DA018D919C91892B31F0F4018081918191
:101C5000892BF1F424C0D80118968C9190E0880F5C
:101C6000991F0E942711F50191838083009709F441
:101C7000B1C0FC0120E030E0D80118968C9190E0D2
:101C80002817390714F7119211922F5F3F4FF4CFA5
:101C9000E12CF12C6E01B1E2CB0ED11C21C0F80178
:101CA000808590E0880F991F0E942711D4018D93A1
:101CB0009C93009709F48EC0FC0120E030E0D8012D
:101CC00018968C9190E02817390714F7D8011E96C2
:101CD0008D919C911F97819391932F5F3F4FEFCFF1
:101CE000452DBE016F5B7F4FC8010E94A50DF80115
:101CF0006084712CFE01EF5BFF4FC6019E012F5FD8
:101D00003F4F190120E030E0261537054CF5E1146E
:101D1000F10489F0DC016D917C914081518164175F
:101D2000750748F0D1016D917C9140815181461732
:101D3000570748F00DC040815181DC014D935C9301
:101D4000E114F10479F740815181D1014D935C9305
:101D50002F5F3F4FB2E02B0E311C32960296D4CF4C
:101D6000EFEFEE1AFE0AFAE0EF16F10409F0B8CF31
:101D70009E012F5F3F4F7901360180E090E0F8012E
:101D8000208530E0821793072CF5D7012D913D91E6
:101D90007D01B3016C197D09D501ED91FC91E60F30
:101DA000F71F408151814217530710F4318320837C
:101DB000F301219131913F01D401ED91FC91E60FA6
:101DC000F71F408151812417350710F43183208398
:101DD0000196D5CFC05ADF4F0FB6F894DEBF0FBEC5
:101DE000CDBFDF91CF911F910F91FF90EF90DF90CA
:101DF000CF90BF90AF909F908F907F906F905F90AB
:101E00003F902F9008951F93CF93DF93EC01162FEF
:101E10008FEF860F823018F0662359F014C021E04E
:101E2000AE014E5F5F4FBE01CE010E94020E123026
:101E300051F4AE014A5F5F4FBE016C5F7F4F20E0FF
:101E4000CE010E94020EDF91CF911F910895A0E074
:101E5000B0E0EDE2FFE00C94F310EC018B01B42E46
:101E6000842F8D7F51F48C819D81892B09F497C03B
:101E70008E819F81892B09F492C08FEF8B0D823068
:101E800050F488819981892B09F489C08A819B81CA
:101E9000892B09F484C04B2DB801CE010E94A50DF9
:101EA000780100E010E0C12CD12C888590E0C816A4
:101EB000D9060CF074C081E0B8120AC0EA81FB8137
:101EC000E00FF11F0190F081E02DA881B9810DC0D4
:101ED0008C819D812E813F81B1100CC0F901E00FF2
:101EE000F11F0190F081E02DDC01A00FB11F8D9159
:101EF0009C9128C0FC01E00FF11F40815181E881D5
:101F0000F981E00FF11F80819181EE85FF854817EF
:101F1000590710F4CF0104C08E0F9F1F841B950B2F
:101F2000D901A00FB11F2D913C91AA81BB81A00FB7
:101F3000B11F4D915C912417350720F0E40FF51F78
:101F4000E21BF30BE81BF90BA9F0D7012D913C9193
:101F500040E050E0281B390B41095109A8EEB3E0DD
:101F60000E94D7109F0140E050E00E94A91037FD69
:101F70000AC002C020E030E0293EB3E03B072CF06D
:101F800028EE33E002C020E030E0F70121933193E6
:101F90007F01FFEFCF1ADF0A0E5F1F4F86CFCDB74D
:101FA000DEB7E9E00C940F11A0E0B0E0EAEDFFE04D
:101FB0000C94EA10EC018B01822E0E94270F2884DA
:101FC000E801412C512C320100E010E0C12CD12C51
:101FD0007601312C912C58EEA52E53E0B52E92149B
:101FE00021F1E991F991882021F0C5018E1B9F0B09
:101FF000FC01E93CF10524F4E333F10574F002C07F
:1020000033243394DF01A30192010E94E210C60E33
:10201000D71EE81EF91E0E0F1F1F939498EE490E4F
:1020200093E0591E611C711CDACF31101EC0492D7E
:1020300050E04150510924EF31E0429FC001439FDD
:10204000900D529F900D11242091DD013091DE0101
:1020500028173907B4F088EE93E0489F9001499F14
:10206000300D589F300D11240EC0980140E050E013
:10207000C701B6010E9487103093DE012093DD0175
:1020800002C020E030E0C901CDB7DEB7E2E10C9438
:102090000611CF93DF93EC018A819B81009711F0A9
:1020A0000E94BC118E819F81009711F00E94BC118B
:1020B00088819981009711F00E94BC118C819D81CB
:1020C000009711F00E94BC11DF91CF910895991BE8
:1020D00079E004C0991F961708F0961B881F7A951F
:1020E000C9F780950895AA1BBB1B51E107C0AA1F21
:1020F000BB1FA617B70710F0A61BB70B881F991FA9
:102100005A95A9F780959095BC01CD010895A1E25B
:102110001A2EAA1BBB1BFD010DC0AA1FBB1FEE1F61
:10212000FF1FA217B307E407F50720F0A21BB30BAC
:10213000E40BF50B661F771F881F991F1A9469F728
:1021400060957095809590959B01AC01BD01CF0184
:102150000895052E97FB1EF400940E94C01057FDB1
:1021600007D00E94871007FC03D04EF40C94C010D7
:1021700050954095309521953F4F4F4F5F4F0895B3
:1021800090958095709561957F4F8F4F9F4F0895E3
:10219000A29FB001B39FC001A39F700D811D1124A8
:1021A000911DB29F700D811D1124911D08950E94F3
:1021B000C810A59F900DB49F900DA49F800D911DF8
:1021C00011240895B7FF0C94D7100E94D710821BDA
:1021D000930B08952F923F924F925F926F927F924E
:1021E0008F929F92AF92BF92CF92DF92EF92FF9227
:1021F0000F931F93CF93DF93CDB7DEB7CA1BDB0BD3
:102200000FB6F894DEBF0FBECDBF09942A88398877
:1022100048885F846E847D848C849B84AA84B9847E
:10222000C884DF80EE80FD800C811B81AA81B9818A
:10223000CE0FD11D0FB6F894DEBF0FBECDBFED019E
:102240000895EE0FFF1F0590F491E02D0994CF93B0
:10225000DF938230910510F482E090E0E091D202A9
:10226000F091D30220E030E0C0E0D0E0309711F1EF
:102270004081518148175907C0F04817590761F448
:1022800082819381209719F09B838A832BC090933E
:10229000D3028093D20226C02115310519F04217CE
:1022A000530718F49A01BE01DF01EF010280F381A8
:1022B000E02DDCCF2115310509F1281B390B243025
:1022C000310590F412968D919C91139761157105CB
:1022D00021F0FB019383828304C09093D302809307
:1022E000D202FD01329644C0FD01E20FF31F81933B
:1022F0009193225031092D933C933AC02091D00202
:102300003091D102232B41F4209110013091110121
:102310003093D1022093D00220910E0130910F0111
:102320002115310541F42DB73EB74091120150916E
:102330001301241B350BE091D002F091D102E2177A
:10234000F307A0F42E1B3F0B2817390778F0AC01D8
:102350004E5F5F4F2417350748F04E0F5F1F5093B5
:10236000D1024093D0028193919302C0E0E0F0E06B
:10237000CF01DF91CF9108950F931F93CF93DF93F8
:10238000009709F48CC0FC013297138212820091ED
:10239000D2021091D3020115110581F420813181FF
:1023A000820F931F2091D0023091D1022817390754
:1023B00079F5F093D102E093D00271C0D80140E0EA
:1023C00050E0AE17BF0750F412962D913C91139731
:1023D000AD012115310509F1D901F3CF9D01DA01D4
:1023E0003383228360817181860F971F8217930741
:1023F00069F4EC0128813981260F371F2E5F3F4F8A
:10240000318320838A819B8193838283452B29F4A6
:10241000F093D302E093D20242C01396FC93EE9362
:102420001297ED01499159919E01240F351FE21732
:10243000F30771F480819181840F951F02961196A4
:102440009C938E938281938113969C938E93129783
:10245000E0E0F0E0D80112968D919C9113970097DF
:1024600019F0F8018C01F6CF8D919C9198012E5FA7
:102470003F4F820F931F2091D0023091D102281735
:10248000390769F4309729F41092D3021092D202DE
:1024900002C0138212821093D1020093D002DF9106
:1024A000CF911F910F910895FB01DC018D91019057
:1024B00080190110D9F3990B0895FB01DC010190FB
:1024C0000D920020E1F7089510E0C6E5D0E004C0C9
:1024D000FE010E9421112196C735D107C9F7F89452
:0224E000FFCF2C
:1024E20088130F00F4010400D00704010802000061
:1024F200D4022000200000010203040506FF4E4F13
:10250200504500000000000053544F5000000000EE
:1025120000009C01B501CF01EA0107022602470231
:1025220069028E02B502DE020A030E0F1011123387
:102532007069312E31006D560050726573732042FE
:1025420000476F210063007B25733A25737D004CA1
:042552000052000033
:00000001FF
