S01900003370692D73657269616C2D6D61737465722E7372656399
S11300000C9435000C9452000C9452000C94520041
S11300100C9452000C9452000C9452000C94520014
S11300200C9452000C9475070C9452000C945200DA
S11300300C9452000C9455040C9452000C945200ED
S11300400C9452000C9452000C94A8060C94500783
S11300500C9452000C9452000C9452000C945200D4
S11300600C9452000C9452002B0811241FBECFEFA5
S1130070D8E0DEBFCDBF11E0A0E0B1E0E2E3FCE1F7
S113008002C005900D92A634B107D9F722E0A6E488
S1130090B1E001C01D92A23AB207E1F70E94480103
S11300A00C940C0E0C9400000E9457069091B10120
S11300B0891771F0E92FF0E0E453FE4F80819F5FD0
S11300C0943618F49093B10108951092B1010895F3
S11300D08EE508950F931F93CF93DF93C6EBD1E082
S11300E08E01065B11400E9454008A3021F08E3547
S11300F011F08993F5CFF801EB54FE4F1082C8013B
S1130100DF91CF911F910F910895EF92FF920F937A
S11301101F93CF93DF9300D0CDB7DEB72AE330E04F
S11301203A832983BE016F5F7F4F0E94170B909320
S1130130B5018093B401BE016F5F7F4F80E090E012
S11301400E94170B9093CB018093CA01FC0101908C
S11301500020E9F731978F01081B190B780181E022
S1130160E81AF1088091B4019091B501FC01019065
S11301700020E9F73197AF01481B590BBC016F5FB1
S11301807F4F0E941C0B8091CA019091CB01FC010E
S113019001900020E9F73197AF01481B590B4E1924
S11301A05F09BC01600F711F8E0D9F1D0E941C0B07
S11301B00F900F90DF91CF911F910F91FF90EF90CF
S11301C00895FC0101900020E9F73197BF01681BF5
S11301D0790B0C942C07CF92DF92EF92FF920F933E
S11301E01F93CF93DF93CDB7DEB7FC0101900020BE
S11301F0E9F731978F01081B190BFB0101900020CF
S1130200E9F73197E61BF70B0E0F1F1F0A5F1F4F0D
S1130210093011055CF1CDB6DEB62DB73EB7201B13
S1130220310B0FB6F8943EBF0FBE2DBF2F5F3F4F6B
S113023079017F936F939F938F9388E391E09F93CA
S11302408F931F930F93FF922F930E94550BC70117
S11302500E94E10060E082E00E945406C7010E940F
S1130260DC050FB6F894DEBE0FBECDBE60E080E0C4
S11302700E945406B801110F880B990BDF91CF919E
S11302801F910F91FF90EF90DF90CF900C94310667
S113029080ED97E00E94270881E00E94C4040E9438
S11302A0CD0580E491E00E94DC0560E072EC81E021
S11302B090E00E94FC0664E68CEC91E00E94A506A6
S11302C00E94CD05C12CD12C76010E946A0086EBD8
S11302D091E00E9485006091CA017091CB018091E8
S11302E0B4019091B5010E94EB001092B60161E057
S11302F080E00E945406C701B6010E94310661E005
S113030085E00E945406E6EBF1E001900020E9F755
S11303103197BF01665B7140072E000C880B990B67
S11303200E94310688EE93E00E94BD070E94CD052D
S11303308FEFC81AD80AE80AF80AC7CF90914B0180
S1130340E0914601F0914701992311F0849101C095
S113035080812FEB280F2A3110F4805E08958032BB
S113036049F49F012F5F3F4F30934701209346018B
S1130370EF2B31F708951F93CF93DF930E949E01D3
S1130380C0E0D0E01AE090ED980F9A30B8F49E01E6
S1130390129FE001139FD00D1124C80FD11D87FDBA
S11303A0DA95E097809146019091470101969093E8
S11303B04701809346010E949E01E5CFCE01DF9163
S11303C0CF911F91089510926F0083E28093800073
S11303D081E1809381001092820080E197E2909302
S11303E089008093880010928B0010928A00229AD0
S11303F0789408958F929F92AF92BF92DF92EF927A
S1130400FF920F931F93CF93DF935C018B01D42E44
S113041080914801811105C081E0809348010E94C8
S1130420E30110920901B7FE05C0E894B7F82AE089
S1130430F22E02C0FF24F394E09081002E2D287F39
S1130440E22E48ECF49EC00111248A159B05E0F4C9
S1130450E50151E1A51657E2B50610F0C0E1D7E277
S1130460BE017695679580E090E0605879468746AE
S11304709F4F4E01A12CB12CA50194010E944A0961
S113048059018E2D816024C0C8E2FC9EC02D112428
S1130490D0E0CA15DB0508F4E501BE017695679541
S11304A09E0140E050E08AE0F81207C080E090E04E
S11304B0605E734481449F4F06C080E090E06053C7
S11304C07D4E8C4E9F4F0E944A0959018E2D8260A9
S11304D0882E2AE0F21207C0CE0105966AE070E089
S11304E00E943609EB01C83E43E0D40759F0980155
S11304F0DE010E948B0928EE33E040E050E00E94C8
S11305006C09890110926F0080928100B092890079
S1130510A092880020918800309189004D2D4031AF
S113052008F04FE080E190E0841B9109A90102C02A
S1130530569547958A95E2F750938B0040938A002D
S113054010934E0100934D0186B38FEF86BB81E07B
S113055080936F00DF91CF911F910F91FF90EF90E7
S1130560DF90BF90AF909F908F900895CF93DF93CB
S1130570EB018F3F11F0411105C040E0BE0188EE50
S113058093E043C0813130F050EF580F503618F0EB
S11305905FE501C050E0852F6CE00E942A09682FB6
S11305A074EF760390011124250F311D2C30310591
S11305B040F4F901EE0FFF1FEE5EFE4F2081318102
S11305C002C020E030E0873081F0082E02C0220F04
S11305D0331F0A94E2F7823028F0C90105966AE0D5
S11305E070E00CC0C90190580CC0C90136E0880FF6
S11305F0991F3A95E1F7029665E070E00E9436098A
S1130600CB01403108F04FE0BE010E94FA01DF91B6
S1130610CF910895A2E0B0E0E0E1F3E00C94AF09DB
S11306209090080180914A01882321F0609149014A
S1130630611117C077247394B0ECAB2EBDE5BB2ECB
S11306401AE0612E04E0802E80EDC82E87E0D82EBB
S113065094E0E92EF12C04EF11E02FE0422E512C0E
S113066015C070E040E088EE93E00E94FA01109219
S1130670490117C18636D4F5813609F4A9C07CF541
S11306808C3309F460C08E3381F493940E949E01EC
S113069020914601309147012F5F3F4F309347012E
S11306A020934601853631F752C0813209F08BC060
S11306B080920801D0920701C0920601F0920501D0
S11306C0E09204011093030100930201509201018E
S11306D04092000110924A01A4E09A2ED7CF8336AB
S11306E0A1F10CF478C010E082E077C08D36C1F13E
S11306F094F4873691F174F18C3609F064C00E9449
S1130700BB01BC0190930501809304018091060113
S11307109091070151C08237C9F14CF48F3609F02A
S113072052C00E94BB01982E80930801AFCF84373A
S113073081F1863709F047C00E94BB019093010103
S113074080930001A3CF9A94A1CF10E020C010E0C1
S113075084E043C010E085E040C010E087E03DC085
S11307600E949E018C3619F410924A0104C07092C2
S11307704A011092490120914601309147012F5FAF
S11307803F4F309347012093460180CF11E080E032
S113079024C00E94BB01BC01C5010E943609669EAB
S11307A0C001679E900D1124909307018093060168
S11307B060910401709105010E9436097093030150
S11307C06093020163CF109247011092460169C001
S11307D010E089E002C010E08BE0082F9CE0999EB5
S11307E0000D11240E949E01982F977F933261F48B
S11307F020914601309147012F5F3F4F30934701CD
S1130800209346010F5FEECF8D3271F420914601A3
S1130810309147012F5F3F4F3093470120934601AA
S113082001500E949E01F0CF60910201709103017A
S11308308153883050F4E0900601F09007010E9443
S1130840BB01BC01C7010E9436097B01F694E79401
S113085069837A830E949E0169817A818E3269F468
S113086020914601309147012F5F3F4F309347015C
S1130870209346016E0D7F1DE9CF80914A018823A4
S113088039F09B013695279520934901621B710924
S113089040910001112311F08FEF01C0802F0E94BD
S11308A0B6022296E0E10C94CB091F920F920FB688
S11308B00F9211242F933F934F935F936F937F93E2
S11308C08F939F93AF93BF93EF93FF9380914D01C9
S11308D090914E019C012150310930934E01209397
S11308E04D01892B11F510926F007894809181004D
S11308F0887F81608093810080E197E290938900F2
S11309008093880010928B0010928A0081E080937B
S113091009018091460190914701892B31F0809122
S11309204C01811102C00E940A03FF91EF91BF9113
S1130930AF919F918F917F916F915F914F913F9173
S11309402F910F900FBE0F901F9018958091090161
S1130950882331F08091460190914701892B49F415
S113096081E02091460130914701232B29F480E056
S113097008950E940A03F4CF089580934C018111D5
S113098002C00E94A60408950E94BD04089581E057
S113099090E06F9364E06A95F1F76F910197C9F75E
S11309A008950F931F93CF93DF931AB157985A98D2
S11309B0289AC0E0D0E00E94C7045C9A0E94C70451
S11309C009B15C980E94C7045C9A0E94C7045C98B1
S11309D0249607FF10C0AE0160E070E080914F01E3
S11309E090915001A0915101B091520148175907BB
S11309F06A077B0700F31AB9DF91CF911F910F911A
S1130A00089595B1282F217030E0220F331F482F0D
S1130A10467068E0469FA0011124242B9D7C292B5D
S1130A2025B99BB188708295807F9F77892B8BB97C
S1130A305C9A0E94C7045C980E94C7040895A0E0D1
S1130A40B0E0E5E2F5E00C94B809C82FD62EE42E08
S1130A508091B201811105C081E08093B2010E94AE
S1130A6065050E94D10414B1D5B1FAB00BB1289830
S1130A70DD2011F05A9A01C05A9894B1926394B946
S1130A80579A81E0E81629F08C2F82958F700E9486
S1130A9001058C2F8F700E940105FAB80BB914B9A7
S1130AA0D5B9CDB7DEB7E7E00C94D40942E060E0F5
S1130AB00E941F05089542E061E00E941F05089509
S1130AC041E060E00E941F05089580E197E2A0E004
S1130AD0B0E080934F0190935001A0935101B093E3
S1130AE05201529A209A549A8EE190E00E94BD07D6
S1130AF083E00E94600586E090E00E94BD0783E0E9
S1130B000E94600582E090E00E94BD0783E00E949D
S1130B10600582E090E00E94BD0782E00E946005CB
S1130B2082E090E00E94BD0788E20E94560588E0BA
S1130B300E94560581E00E94560586E00E945605F3
S1130B408CE00E945605089581E00E94560580912C
S1130B50550190915601892BF9F060E0A0E2262F0F
S1130B6030E070910A0180910B0190E00197789F29
S1130B70A001799F500D1124241735074CF4E091FE
S1130B805501F0915601E20FF31FA0836F5FE7CF89
S1130B90109253011092540108950E94A4050895DF
S1130BA0CF93DF93EC018991882319F00E945B05B0
S1130BB0FACFDF91CF9108950E94D0050895AAE05D
S1130BC0B0E0E5EEF5E00C94B7091AE05AE0C52E62
S1130BD0D12CE12CF12C062FA70196010E944A0981
S1130BE0CA01B9011150E1E0F0E0EC0FFD1FE10F83
S1130BF0F11D005D2AE0629F001911240083611534
S1130C0071058105910539F71A3058F4E1E0F0E0F7
S1130C10EC0FFD1FE10FF11D80810E945B051F5F3A
S1130C20F3CF2A96E8E00C94D309CF92DF92EF92A7
S1130C30FF926B017C0197FF0BC0F094E094D09479
S1130C40C094C11CD11CE11CF11C8DE20E945B0507
S1130C50C701B6010E94DF05FF90EF90DF90CF90AF
S1130C6008950E9415060895A5E0B0E0EAE3F6E0D1
S1130C700C94BC09182F80E8898380EC8A8384E96A
S1130C808B8384ED8C83FE01E60FF11D8181810F3E
S1130C906D830E945605109353016D816093540136
S1130CA02596E3E00C94D8090E94340608958091B7
S1130CB059010895282F30E09AE0899FF00111240A
S1130CC0E95AFE4F80859185009721F05281448135
S1130CD0541780F08AE0829FF001839FF00D112465
S1130CE0E95AFE4F9281848198130EC08581811147
S1130CF00AC008954281DC01A40FB11D6C93828166
S1130D008F5F8283E7CF128208959091C1009F770D
S1130D109093C1009AE0899FF0011124E95AFE4F93
S1130D20718760871282448325838081811105C085
S1130D308091C10080688093C1000895462F21E00E
S1130D40BC0180E00E94850608950E949E060895D5
S1130D501F920F920FB60F9211242F933F934F932C
S1130D605F936F937F938F939F93AF93BF93EF930F
S1130D70FF936091C60080E00E945A06FF91EF91B4
S1130D80BF91AF919F918F917F916F915F914F919F
S1130D903F912F910F900FBE0F901F9018959AE0DE
S1130DA0899FF0011124E95AFE4F86819781892B8E
S1130DB059F091818381981738F48081811104C09E
S1130DC08091C100806203C08091C1008F7D8093B7
S1130DD0C10008959AE0899FF0011124E95AFE4F59
S1130DE09081911102C098E901C098E19093C100EB
S1130DF00E94CF0678940895CF92DF92EF92FF92EB
S1130E006B017C0180E00E94EA06A8EFBFEFA70116
S1130E1096010E94A809735D8E4C9E4FE4E0220F58
S1130E20331F441F551FEA95D1F70E944A09309396
S1130E30C5002093C400FF90EF90DF90CF900895F9
S1130E4090935E0180935D011092580160935A0162
S1130E5080E00E94CF0608950E94200708959AE03A
S1130E60899FF0011124E95AFE4F2681378121150B
S1130E70310541F041819381491720F49091C000DC
S1130E8095FD03C00E94CF0608959181D901A90F51
S1130E90B11D9C919093C60091819F5F9183F2CF85
S1130EA01F920F920FB60F9211242F933F934F93DB
S1130EB05F936F937F938F939F93AF93BF93EF93BE
S1130EC0FF9380E00E942F07FF91EF91BF91AF91B4
S1130ED09F918F917F916F915F914F913F912F914E
S1130EE00F900FBE0F901F9018952F928F939F9382
S1130EF02FB68091680190916901019680936801F1
S1130F009093690190E080916A01891F80936A013E
S1130F10909162019C5F9093620180916101805184
S1130F209742C0F0909362018093610180916301C4
S1130F30909164010196809363019093640190E021
S1130F4080916501891F8093650180916601891FE5
S1130F50809366012FBE9F918F912F90189528EE54
S1130F6033E0019748F0F9016F9364E06A95F1F773
S1130F706F913197C9F7F5CF08950E94AF0708958F
S1130F80E0E7F0E080818E7F8083A0EBB0E08C917D
S1130F9083608C93A1EBB0E08C91807F8C938C91D7
S1130FA082608C93B89A808181608083789408955C
S1130FB08091B301811105C081E08093B3010E9447
S1130FC0C00708950E94D807E0E7F0E080818E7F93
S1130FD08083109263011092640110926501109253
S1130FE066011092620110926101808181608083A8
S1130FF008950F93CF93DF9300D000D01F92CDB705
S1131000DEB79C0185E0EAE2F1E0DE011196019091
S11310100D928A95E1F7662311F00FEF01C003E109
S113102045E0BE016F5F7F4F8BE691E00E94B708F9
S11310308BE691E00E94A2080E94E2070F900F90B5
S11310400F900F900F90DF91CF910F91089560E072
S11310500E94F90708958BE691E00E940C09089517
S11310606F9364E06A95F1F76F910197C9F708955A
S1131070FC0111821082138212821582148216825C
S1131080683068F489E290E0918380838BE290E099
S1131090938382838AE290E0958384831FC06E30B9
S11310A070F483E290E09183808385E290E09383FF
S11310B0828384E290E09583848368500FC0653115
S11310C098F486E290E09183808388E290E09383B1
S11310D0828387E290E0958384836E5081E001C02F
S11310E0880F6A95EAF786830895A7E0B0E0EBE7F6
S11310F0F8E00C94BB098C01FC011182108213826C
S113110012821582148217821682613118F080E1EE
S1131110808702C0FC016087F801208B642FCE0118
S113112001960E9438088F81F80181878B819C8108
S1131130938782878D819E81958784872796E4E0B3
S11311400C94D709FC01A485B585109779F08C918E
S11311509185892B8C93A285B3859C9181858095FB
S113116089238C9388EC90E00E9430080895A7E0CE
S1131170B0E0EDEBF8E00C94B0097C014B01642F76
S11311803901402F20E00E94750887010F5B1F4F33
S1131190F80110826701F2E4CF0ED11CF60110822F
S11311A05701F3E4AF0EB11CF5011082F701778605
S11311B06686512CF7018085581650F5652C712CE4
S11311C0F401E60DF71D6081CE0101960E943808F6
S11311D02F81F701E60DF71D218B89819A81F30197
S11311E0EE0FFF1FEE0DFF1D92A381A38332910525
S11311F011F4F80108C08632910511F4F60103C018
S1131200899721F4F5018081822B80835394D2CF76
S11312102796EFE00C94CC09CF93DF93EC018A81FD
S11312209B81009711F00E947F0A8E819F81009715
S113123011F00E947F0A88819981009711F00E9421
S11312407F0A8C819D81009711F00E947F0ADF91B3
S1131250CF910895991B79E004C0991F961708F05F
S1131260961B881F7A95C9F780950895AA1BBB1B06
S113127051E107C0AA1FBB1FA617B70710F0A61B92
S1131280B70B881F991F5A95A9F780959095BC01B3
S1131290CD010895A1E21A2EAA1BBB1BFD010DC0AE
S11312A0AA1FBB1FEE1FFF1FA217B307E407F50712
S11312B020F0A21BB30BE40BF50B661F771F881FEE
S11312C0991F1A9469F760957095809590959B0184
S11312D0AC01BD01CF010895052E97FB1EF40094C7
S11312E00E94830957FD07D00E944A0907FC03D0D6
S11312F04EF40C94830950954095309521953F4FB9
S11313004F4F5F4F089590958095709561957F4FED
S11313108F4F9F4F0895A29FB001B39FC001A39F19
S1131320700D811D1124911DB29F700D811D11241A
S1131330911D08950E948B09A59F900DB49F900D57
S1131340A49F800D911D11240895B7FF0C949A0950
S11313500E949A09821B930B08952F923F924F92F9
S11313605F926F927F928F929F92AF92BF92CF9231
S1131370DF92EF92FF920F931F93CF93DF93CDB73A
S1131380DEB7CA1BDB0B0FB6F894DEBF0FBECDBFB2
S113139009942A88398848885F846E847D848C8483
S11313A09B84AA84B984C884DF80EE80FD800C818C
S11313B01B81AA81B981CE0FD11D0FB6F894DEBF6F
S11313C00FBECDBFED010895EE0FFF1F0590F49100
S11313D0E02D0994CF93DF938230910510F482E0DD
S11313E090E0E091A002F091A10220E030E0C0E0A2
S11313F0D0E0309711F14081518148175907C0F06E
S11314004817590761F482819381209719F09B83CF
S11314108A832BC09093A1028093A00226C0211539
S1131420310519F04217530718F49A01BE01DF0180
S1131430EF010280F381E02DDCCF2115310509F1A4
S1131440281B390B2430310590F412968D919C9110
S113145013976115710521F0FB019383828304C006
S11314609093A1028093A002FD01329644C0FD0135
S1131470E20FF31F81939193225031092D933C93F2
S11314803AC020919E0230919F02232B41F4209177
S11314900E0130910F0130939F0220939E02209100
S11314A00C0130910D012115310541F42DB73EB7E2
S11314B04091100150911101241B350BE0919E02C3
S11314C0F0919F02E217F307A0F42E1B3F0B28179D
S11314D0390778F0AC014E5F5F4F2417350748F0A9
S11314E04E0F5F1F50939F0240939E0281939193EE
S11314F002C0E0E0F0E0CF01DF91CF9108950F93B7
S11315001F93CF93DF93009709F48CC0FC013297AB
S1131510138212820091A0021091A10201151105FB
S113152081F420813181820F931F20919E0230919A
S11315309F022817390779F5F0939F02E0939E02E2
S113154071C0D80140E050E0AE17BF0750F41296C6
S11315502D913C911397AD012115310509F1D90164
S1131560F3CF9D01DA013383228360817181860F79
S1131570971F8217930769F4EC0128813981260F9C
S1131580371F2E5F3F4F318320838A819B81938352
S11315908283452B29F4F093A102E093A00242C078
S11315A01396FC93EE931297ED01499159919E0184
S11315B0240F351FE217F30771F480819181840FA2
S11315C0951F029611969C938E9382819381139614
S11315D09C938E931297E0E0F0E0D80112968D91DF
S11315E09C911397009719F0F8018C01F6CF8D9117
S11315F09C9198012E5F3F4F820F931F20919E0272
S113160030919F022817390769F4309729F4109212
S1131610A1021092A00202C01382128210939F02B0
S113162000939E02DF91CF911F910F9108954FEA8D
S113163051E00E942E0B08956817790768F4FB01A6
S1131640DC01E40FF51FA40FB51F02C002900E9237
S113165041505040D8F708950C94620DFA01A191BD
S1131660B081009719F41097E1F0CD01DC01CD01B0
S11316700D90002011F4C00113C0FB01219122231D
S113168019F02015D9F7F3CFFB012191201519F496
S11316901E92119606C02223C1F70D900020A1F7D7
S11316A0D001FA01A193B0830895AEE0B0E0EBE578
S11316B0FBE00C94BB090D891E898F89988D26E067
S11316C02C831A83098397FF02C080E090E8019776
S11316D09E838D83AE01455E5F4F698D7A8DCE0109
S11316E001960E94850B4D815E8157FD0AC02F81B2
S11316F03885421753070CF49A01F801E20FF31FDF
S113170010822E96E4E00C94D709ACE0B0E0EBE84C
S1131710FBE00C94AD097C016B018A01FC0117828A
S11317201682838181FFBDC1CE0101964C01F70170
S11317309381F60193FD859193FF81916F01882335
S113174009F4ABC1853239F493FD859193FF8191FE
S11317506F01853229F4B70190E00E94760DE7CF3E
S1131760512C312C20E02032A0F48B3269F030F47B
S1131770803259F0833269F420612CC08D3239F003
S1131780803339F4216026C02260246023C028609D
S113179021C027FD27C030ED380F3A3078F426FFFA
S11317A006C0FAE05F9E300D1124532E13C08AE068
S11317B0389E300D1124332E20620CC08E3221F459
S11317C026FD6BC1206406C08C3611F4206802C06B
S11317D0883641F4F60193FD859193FF81916F0161
S11317E08111C1CF982F9F7D9554933028F40C5FBD
S11317F01F4FFFE3F9830DC0833631F0833771F057
S1131800833509F05BC022C0F801808189830E5FB3
S11318101F4F44244394512C540115C03801F2E065
S11318206F0E711CF801A080B18026FF03C0652DE6
S113183070E002C06FEF7FEFC5012C870E946B0D33
S11318402C0183012C852F77222E17C03801F2E05A
S11318506F0E711CF801A080B18026FF03C0652DB6
S113186070E002C06FEF7FEFC5012C870E94570D17
S11318702C012C852068222E830123FC1BC0832D80
S113188090E048165906B0F4B70180E290E00E9457
S1131890760D3A94F4CFF50127FC859127FE8191CA
S11318A05F01B70190E00E94760D31103A94F1E0A7
S11318B04F1A51084114510471F7E5C0843611F0F0
S11318C0893639F5F80127FF07C06081718182816B
S11318D093810C5F1F4F08C060817181072E000C3B
S11318E0880B990B0E5F1F4F2F76722E97FF09C03E
S11318F090958095709561957F4F8F4F9F4F20688D
S1131900722E2AE030E0A4010E94AE0DA82EA81881
S113191044C0853729F42F7EB22E2AE030E025C05A
S1131920F22FF97FBF2E8F36C1F018F4883579F085
S1131930B4C0803719F0883721F0AFC02F2F206151
S1131940B22EB4FE0DC08B2D8460B82E09C024FFC6
S11319500AC09F2F9660B92E06C028E030E005C06B
S113196020E130E002C020E132E0F801B7FE07C018
S113197060817181828193810C5F1F4F06C06081F9
S1131980718180E090E00E5F1F4FA4010E94AE0DB4
S1131990A82EA818FB2DFF777F2E76FE0BC0372DBF
S11319A03E7FA51450F474FE0AC072FC08C0372DA3
S11319B03E7E05C0BA2C372D03C0BA2C01C0B52C0D
S11319C034FF0DC0FE01EA0DF11D8081803311F456
S11319D0397E09C032FF06C0B394B39404C0832F88
S11319E0867809F0B39433FD13C030FF06C05A2C37
S11319F0B31418F4530C5B18B32CB31468F4B70184
S1131A0080E290E03C870E94760DB3943C85F5CF4C
S1131A10B31410F43B1801C0312C34FF12C0B701C9
S1131A2080E390E03C870E94760D3C8532FF17C02E
S1131A3031FD03C088E790E002C088E590E0B7017B
S1131A400CC0832F867859F031FF02C08BE201C0AD
S1131A5080E237FD8DE2B70190E00E94760DA51477
S1131A6038F4B70180E390E00E94760D5A94F7CFE2
S1131A70AA94F401EA0DF11D8081B70190E00E945F
S1131A80760DA110F5CF332009F451CEB70180E2D1
S1131A9090E00E94760D3A94F6CFF7018681978103
S1131AA002C08FEF9FEF2C96E2E10C94C909FC0170
S1131AB00590615070400110D8F7809590958E0F75
S1131AC09F1F0895FB01DC0102C001900D9241505B
S1131AD05040D8F70895FC01615070400190011006
S1131AE0D8F7809590958E0F9F1F08950F931F939D
S1131AF0CF93DF93FB01238121FD03C08FEF9FEF81
S1131B0028C022FF16C0468157812481358142179F
S1131B10530744F4A081B1819D012F5F3F4F31836E
S1131B2020838C93268137812F5F3F4F3783268311
S1131B3010C0EB01092F182F0084F185E02D0995C1
S1131B40892BE1F68E819F8101969F838E83812F5D
S1131B50902FDF91CF911F910F910895FA01AA2739
S1131B60283051F1203181F1E8946F936E7F6E5FDC
S1131B707F4F8F4F9F4FAF4FB1E03ED0B4E03CD08A
S1131B80670F781F891F9A1FA11D680F791F8A1F6D
S1131B90911DA11D6A0F711D811D911DA11D20D0D4
S1131BA009F468943F912AE0269F11243019305D8E
S1131BB03193DEF6CF010895462F4770405D41937F
S1131BC0B3E00FD0C9F7F6CF462F4F70405D4A33CC
S1131BD018F0495D31FD4052419302D0A9F7EACF94
S1131BE0B4E0A6959795879577956795BA95C9F7C3
S1131BF000976105710508959B01AC010A2E0694B6
S1131C005795479537952795BA95C9F7620F731F6E
S1131C10841F951FA01D089510E0C4E3D0E004C004
S1131C20FE010E94E4092196C533D107C9F7F8944F
S1051C30FFCFE0
S1131C320F00F4010400D007040108020000A2020C
S1131C4220009C01B501CF01EA01070226024702E6
S1131C5269028E02B502DE020A030E0F101112335C
S1131C627069312E310063007B25733A25737D0040
S1091C72737A61720000A8
S9030000FC
