S01900003370692D73657269616C2D6D61737465722E7372656399
S11300000C9457000C9474000C9474000C947400B9
S11300100C9474000C9474000C9474000C9474008C
S11300200C9474000C944D0B0C9474000C94740098
S11300300C9474000C9409070C9474000C947400D0
S11300400C9474000C9474000C948F0A0C94280B78
S11300500C9474000C9474000C9474000C9474004C
S11300600C9474000C947400666F6C6C6F776572FA
S1130070004C696E650033F720526F626F74002084
S1130080506F6C6F6C7500000000000000001F1FB3
S11300901F1F1F1F1F4C313620636465677265671D
S11300A034003E6733323E3E63333200110C112478
S11300B01FBECFEFD8E0DEBFCDBF11E0A0E0B1E0BE
S11300C0EEE2F6E202C005900D92AA36B107D9F726
S11300D022E0AAE6B1E001C01D92AB3CB207E1F711
S11300E00E943C030C940A130C94000060E087E81F
S11300F090E00E943A0861E088E890E00E943A08A3
S113010062E089E890E00E943A0863E08AE890E0BF
S11301100E943A0864E08BE890E00E943A0865E0A7
S11301208CE890E00E943A0866E08DE890E00E9436
S11301303A080C94AD08BF92CF92DF92EF92FF92EF
S11301400F931F93CF93DF93CDB7DEB72A970FB6E4
S1130150F894DEBF0FBECDBF8C017C018AE0E80EAF
S1130160F11C8AE0B82E95E6C92ED12CE4E1F1E029
S1130170DE0111968B2D01900D928A95E1F7F8011D
S1130180819191918F01B6010E942911E1E0F0E083
S1130190EC0FFD1FE60FF71F80810E943D080E152E
S11301A01F0521F72A960FB6F894DEBF0FBECDBF08
S11301B0DF91CF911F910F91FF90EF90DF90CF903F
S11301C0BF9008950F931F93CF93DF93CDB7DEB7FE
S11301D02A970FB6F894DEBF0FBECDBF80ED97E02F
S11301E00E940D0C0E9476008FE790E00E94CD08DB
S11301F061E080E00E94450986E790E00E94CD0816
S113020082EA90E00E947A0788EE93E00E94950BC0
S11302100E94AD0881E790E00E94CD0861E080E093
S11302200E94450988E690E00E94CD0888EE93E09C
S11302300E94950B80E10E943E0A81111AC00E941F
S11302404F048C010E94AD08B801110F880B990B63
S11302500E94220982E491E00E94BC0861E080E0EF
S11302600E94450985E491E00E94BC0884E690E080
S1130270DFCF80E10E942A0A88EE93E00E94950B6A
S11302800CEE1FEF0832110528F068ED7FEF88E2CD
S113029090E004C068E270E088ED9FEF0E94FB09E3
S11302A081E00E94D10B84E190E00E94950B0F5FE6
S11302B01F4F0C33110531F760E070E080E090E0EF
S11302C00E94FB0980E10E943E0A81111AC061E08C
S11302D0CE0101960E94D70B8C010E94AD08B80193
S11302E080E090E00E94220961E080E00E944509DC
S11302F0CE0101960E949B0084E690E00E94950B3B
S1130300E1CF80E10E942A0A0E94AD088DE491E0C9
S11303100E94BC0885E990E00E947A070E94690760
S11303208111FCCF2A960FB6F894DEBF0FBECDBF65
S1130330DF91CF911F910F910895CF93DF9361E0E7
S11303408DEB92E00E94D70B9093DE018093DD0148
S113035060E080E00E9445096091DD017091DE015A
S113036080E090E00E94220961E080E00E9445095B
S11303708DEB92E00E949B002091BD023091BE0261
S11303808091C5029091C602253F41E0340708F4EC
S113039087C0853F41E0940788F060E070E080E02A
S11303A090E00E94FB0960E085E00E9445098BE52E
S11303B091E00E94BC08C3E0D0E025C1883C9105CF
S11303C008F06EC060E070E080E090E00E94FB09FD
S11303D060E085E00E9445098EE591E00E94BC083A
S11303E064E170E084E190E00E94FB0960E080E059
S11303F00E9445096091DD017091DE0180E090E08A
S11304000E94220961E080E00E9445098DEB92E0A0
S11304100E949B0061E08DEB92E00E94D70B9093C9
S1130420DE018093DD018091BD029091BE028D3288
S1130430914038F08091C1029091C20285369105B5
S113044078F660E070E080E090E00E94FB090E9492
S1130450AD0860E080E00E9445096091BD027091A2
S1130460BE0280E090E00E9422098091BD0290913A
S1130470BE028C32914008F487C08091C1029091F1
S1130480C2028436910508F08AC060E085E00E94CB
S113049045098EE591E00E94BC08C1E0D0E081C02E
S11304A0853F914008F482C0283C310508F07EC0A5
S11304B060E070E080E090E00E94FB0960E085E08D
S11304C00E94450981E691E00E94BC0864E170E065
S11304D084E190E00E94FB0960E080E00E9445090D
S11304E06091DD017091DE0180E090E00E942209BC
S11304F061E080E00E9445098DEB92E00E949B0040
S113050061E08DEB92E00E94D70B9093DE01809323
S1130510DD018091C5029091C6028D32914038F080
S11305208091BF029091C0028536910578F660E013
S113053070E080E090E00E94FB090E94AD0860E05A
S113054080E00E9445096091C5027091C60280E076
S113055090E00E9422098091BF029091C0028436EB
S1130560910558F460E085E00E94450981E691E038
S11305700E94BC08C2E0D0E014C08091C5029091F2
S1130580C6028C32914058F460E085E00E9445092F
S11305908BE591E00E94BC08C3E0D0E002C0CFEF3D
S11305A0DFEF80ED97E00E94950B2DC08091DD0177
S11305B09091DE01803D27E0920778F460E085E0C9
S11305C00E94450984E691E00E94BC086EE170E057
S11305D084E190E00E94FB0911C0803D974089F0BE
S11305E064E170E08EE190E00E94FB0960E085E048
S11305F00E94450987E691E00E94BC08C4E0D0E06F
S113060002C0CFEFDFEFCE01DF91CF9108950F93BA
S11306101F93CF93DF938130910591F0029729F4D2
S113062000E010E0C4E1D0E00FC061E080E00E948F
S113063045098BE591E00E94BC0800E010E002C08F
S113064004E110E0C0E0D0E0B801CE010E94FB0953
S113065061E08DEB92E00E94D70B9093DE018093D2
S1130660DD019C012C563740293C310568F7DF91A8
S1130670CF911F910F9108950E94E2000E94AD084E
S113068060E072EC81E090E00E94E30A64E685EFAA
S113069091E00E948C0A0E94AD080E949D01EC0129
S11306A060E080E00E9445096E010D2E000CEE080A
S11306B0FF08C701B6010E942209CE0101970297E3
S11306C040F480ED97E00E94950BCE010E94070351
S11306D0E4CF239711F760E070E080E090E00E949F
S11306E0FB0960E080E00E944509C701B6010E9451
S11306F0220988E893E10E94950BCFCFECE7F0E064
S113070080818F7D80830895811103C00E947E03C0
S1130710089580917C00806280937C00089580918C
S11307207C0085FB882780F908950E948F03882325
S113073021F08091790090E0089580917800909163
S1130740790008958032A0F497E890937A0090910C
S11307507C00662311F0906C02C09F779064907EB9
S1130760982B90937C0080917A00806480937A0027
S11307700895A0E0B0E0EFEBF3E00C94AA11EB01D4
S113078060E00E94A20380917A0086FDFCCF8E0176
S1130790C12CD12C760180917A00806480937A00F8
S11307A080917A0086FDFCCF0E949503C80ED91E65
S11307B0E11CF11C015011090115110561F7CE016D
S11307C096958795C034D10538F48C0D9D1DBE01D6
S11307D00E942911CB010EC0A7019601280F391FD1
S11307E0411D511DCA01B9019E0140E050E00E9423
S11307F03D11C901CDB7DEB7E8E00C94C611CF9224
S1130800DF92EF92FF92A0910001B09101019C014F
S11308100E947E116B017C010E948F03882359F092
S1130820C701B60161587F4F8F4F9F4F2FEF30E0C4
S113083040E050E00AC0C701B60161507E4F8F4FBF
S11308409F4F2FEF33E040E050E00E943D11C9017B
S1130850FF90EF90DF90CF9008950E94B9030E941B
S1130860FF0308951F93CF93DF930E948F03182FE4
S11308700E947E036AE070E086E00E942D04EC0191
S1130880812F0E948403CE01880F991F8C0F9D1F16
S1130890019696958795DF91CF911F9108950E94B7
S11308A03204089590916F01E0916A01F0916B0117
S11308B0992311F0849101C080812FEB280F2A31F4
S11308C010F4805E0895803249F49F012F5F3F4FFA
S11308D030936B0120936A01EF2B31F708951F9336
S11308E0CF93DF930E945204C0E0D0E01AE090ED71
S11308F0980F9A30B8F49E01129FE001139FD00D17
S11309001124C80FD11D87FDDA95E09780916A0103
S113091090916B01019690936B0180936A010E9400
S11309205204E5CFCE01DF91CF911F91089510922B
S11309306F0083E28093800081E1809381001092B4
S1130940820080E197E2909389008093880010925E
S11309508B0010928A00229A789408958F929F9225
S1130960AF92BF92DF92EF92FF920F931F93CF93B8
S1130970DF935C018B01D42E80916C01811105C041
S113098081E080936C010E94970410920B01B7FEE2
S113099005C0E894B7F82AE0F22E02C0FF24F394CD
S11309A0E09081002E2D287FE22E48ECF49EC001B9
S11309B011248A159B05E0F4E50151E1A51657E2DF
S11309C0B50610F0C0E1D7E2BE017695679580E0E8
S11309D090E06058794687469F4F4E01A12CB12C78
S11309E0A50194010E943D1159018E2D816024C0FE
S11309F0C8E2FC9EC02D1124D0E0CA15DB0508F422
S1130A00E501BE01769567959E0140E050E08AE0DD
S1130A10F81207C080E090E0605E734481449F4F09
S1130A2006C080E090E060537D4E8C4E9F4F0E9444
S1130A303D1159018E2D8260882E2AE0F21207C0E2
S1130A40CE0105966AE070E00E942911EB01C83ED0
S1130A5043E0D40759F09801DE010E947E1128EE8C
S1130A6033E040E050E00E945F11890110926F0072
S1130A7080928100B0928900A09288002091880021
S1130A80309189004D2D403108F04FE080E190E035
S1130A90841B9109A90102C0569547958A95E2F7EE
S1130AA050938B0040938A0010937201009371015C
S1130AB086B38FEF86BB81E080936F00DF91CF9187
S1130AC01F910F91FF90EF90DF90BF90AF909F9098
S1130AD08F900895CF93DF93EB018F3F11F0411175
S1130AE005C040E0BE0188EE93E043C0813130F0A0
S1130AF050EF580F503618F05FE501C050E0852FD5
S1130B006CE00E941D11682F74EF7603900111248C
S1130B10250F311D2C30310540F4F901EE0FFF1F74
S1130B20E25EFE4F2081318102C020E030E0873058
S1130B3081F0082E02C0220F331F0A94E2F782309C
S1130B4028F0C90105966AE070E00CC0C90190580C
S1130B500CC0C90136E0880F991F3A95E1F7029657
S1130B6065E070E00E942911CB01403108F04FE0AC
S1130B70BE010E94AE04DF91CF910895A2E0B0E0DF
S1130B80E4ECF5E00C94A21190900A0180916E01BE
S1130B90882321F060916D01611117C0772473944B
S1130BA0B0ECAB2EBDE5BB2E1AE0612E04E0802E26
S1130BB080EDC82E87E0D82E94E0E92EF12C04EFC6
S1130BC011E02FE0422E512C15C070E040E088EE79
S1130BD093E00E94AE0410926D0117C18636D4F5DD
S1130BE0813609F4A9C07CF58C3309F460C08E33D6
S1130BF081F493940E94520420916A0130916B0114
S1130C002F5F3F4F30936B0120936A01853631F794
S1130C1052C0813209F08BC080920A01D09209013E
S1130C20C0920801F0920701E092060110930501B9
S1130C3000930401509203014092020110926E014C
S1130C40A4E09A2ED7CF8336A1F10CF478C010E03B
S1130C5082E077C08D36C1F194F4873691F174F156
S1130C608C3609F064C00E946F04BC0190930701A4
S1130C7080930601809108019091090151C0823747
S1130C80C9F14CF48F3609F052C00E946F04982EBB
S1130C9080930A01AFCF843781F1863709F047C0CA
S1130CA00E946F049093030180930201A3CF9A944E
S1130CB0A1CF10E020C010E084E043C010E085E044
S1130CC040C010E087E03DC00E9452048C3619F405
S1130CD010926E0104C070926E0110926D01209109
S1130CE06A0130916B012F5F3F4F30936B0120936A
S1130CF06A0180CF11E080E024C00E946F04BC012F
S1130D00C5010E942911669EC001679E900D1124A1
S1130D109093090180930801609106017091070185
S1130D200E942911709305016093040163CF10920E
S1130D306B0110926A0169C010E089E002C010E002
S1130D408BE0082F9CE0999E000D11240E94520410
S1130D50982F977F933261F420916A0130916B014F
S1130D602F5F3F4F30936B0120936A010F5FEECFEB
S1130D708D3271F420916A0130916B012F5F3F4FE6
S1130D8030936B0120936A0101500E945204F0CF0A
S1130D9060910401709105018153883050F4E09012
S1130DA00801F09009010E946F04BC01C7010E9470
S1130DB029117B01F694E79469837A830E94520493
S1130DC069817A818E3269F420916A0130916B01D4
S1130DD02F5F3F4F30936B0120936A016E0D7F1D8F
S1130DE0E9CF80916E01882339F09B0136952795D0
S1130DF020936D01621B710940910201112311F0CE
S1130E008FEF01C0802F0E946A052296E0E10C94C6
S1130E10BE111F920F920FB60F9211242F933F937E
S1130E204F935F936F937F938F939F93AF93BF93EE
S1130E30EF93FF9380917101909172019C01215075
S1130E4031093093720120937101892B11F51092AD
S1130E506F00789480918100887F81608093810005
S1130E6080E197E2909389008093880010928B0030
S1130E7010928A0081E080930B0180916A01909125
S1130E806B01892B31F080917001811102C00E94A5
S1130E90BE05FF91EF91BF91AF919F918F917F918B
S1130EA06F915F914F913F912F910F900FBE0F90D3
S1130EB01F90189580910B01882349F081E02091BF
S1130EC06A0130916B01232B19F480E0089581E0CD
S1130ED008950E945A07089510926F0090936B0131
S1130EE080936A0181E080936F0110926D010E94EA
S1130EF0BE0508950E946C07089581E090E06F9309
S1130F0064E06A95F1F76F910197C9F708950F931B
S1130F101F93CF93DF931AB157985A98289AC0E039
S1130F20D0E00E947D075C9A0E947D0709B15C981D
S1130F300E947D075C9A0E947D075C98249607FFB7
S1130F4010C0AE0160E070E0809173019091740173
S1130F50A0917501B0917601481759076A077B077C
S1130F6000F31AB9DF91CF911F910F91089595B1B4
S1130F70282F217030E0220F331F482F467068E07D
S1130F80469FA0011124242B9D7C292B25B99BB1BC
S1130F9088708295807F9F77892B8BB95C9A0E9499
S1130FA07D075C980E947D070895A0E0B0E0EBED1A
S1130FB0F7E00C94AB11C82FD62EE42E8091D70104
S1130FC0811105C081E08093D7010E9445080E94E9
S1130FD0870714B1D5B1FAB00BB12898DD2011F010
S1130FE05A9A01C05A9894B1926394B9579A81E07D
S1130FF0E81629F08C2F82958F700E94B7078C2FEA
S11310008F700E94B707FAB80BB914B9D5B9CDB728
S1131010DEB7E7E00C94C71142E060E00E94D50718
S1131020089542E061E00E94D5070895A1E0B0E090
S1131030ECE1F8E00C94AC118C01660F660F660FBE
S1131040E12CF12C8E2D860F806469830E940C089C
S1131050F801EE0DFF1D84910E9411088FEFE81A2C
S1131060F80A6981E8E0EE16F10461F72196E6E0FA
S11310700C94C8110E94160808950E94110808953E
S113108041E060E00E94D507089580E197E2A0E086
S1131090B0E08093730190937401A0937501B093B1
S11310A07601529A209A549A8EE190E00E94950B10
S11310B083E00E94400886E090E00E94950B83E064
S11310C00E94400882E090E00E94950B83E00E9419
S11310D0400882E090E00E94950B82E00E94400864
S11310E082E090E00E94950B88E20E940C0888E060
S11310F00E940C0881E00E940C0886E00E940C0803
S11311008CE00E940C08089581E00E940C088091F4
S1131110790190917A01892BF9F060E0A0E2262F01
S113112030E070910C0180910D0190E00197789F5F
S1131130A001799F500D1124241735074CF4E09138
S11311407901F0917A01E20FF31FA0836F5FE7CF7B
S1131150109277011092780108950E9484080895EE
S1131160CF93DF93EC018991882319F00E94110831
S1131170FACFDF91CF9108950E94B0080895CF93DC
S1131180DF93EC01FE018491882321F00E94110871
S11311902196F8CFDF91CF9108950E94BF0808955A
S11311A0AAE0B0E0E6EDF8E00C94AA111AE05AE0E7
S11311B0C52ED12CE12CF12C062FA70196010E94FB
S11311C03D11CA01B9011150E1E0F0E0EC0FFD1F3F
S11311D0E10FF11D005D2AE0629F001911240083D4
S11311E0611571058105910539F71A3058F4E1E06C
S11311F0F0E0EC0FFD1FE10FF11D80810E9411084A
S11312001F5FF3CF2A96E8E00C94C611CF92DF92C9
S1131210EF92FF926B017C0197FF0BC0F094E09476
S1131220D094C094C11CD11CE11CF11C8DE20E941D
S11312301108C701B6010E94D008FF90EF90DF901B
S1131240CF9008950E9406090895A5E0B0E0EBE26E
S1131250F9E00C94AF11182F80E8898380EC8A831D
S113126084E98B8384ED8C83FE01E60FF11D81817B
S1131270810F6D830E940C08109377016D81609338
S113128078012596E3E00C94CB110E94250908957A
S1131290883058F491E001C0990F8A95EAF7892FB4
S11312A0AAE2B0E0EBE2F0E021C08E3060F498EF07
S11312B0980F81E001C0880F9A95EAF7A4E2B0E0A4
S11312C0E5E2F0E013C0853160F492EF980F81E01D
S11312D001C0880F9A95EAF7A7E2B0E0E8E2F0E0EF
S11312E005C080E0A0E0B0E0E0E0F0E06F3F19F47A
S11312F09081982709C0662319F09081982B04C027
S11313002081982F9095922390839C91982B9C9365
S1131310089583EF8093B00084BD82E08093B10090
S113132085BD1092B4001092B30018BC17BC60E0E5
S113133086E00E94480960E085E00E94480960E078
S11313408BE00E94480960E083E00E944809089508
S11313508091D801811105C081E08093D8010E9459
S113136089090895CF93DF93EC010E94A809D7FF60
S113137005C0D195C195D10981E001C080E0CF3F7E
S1131380D10519F014F0CFEFD0E0882319F018BC80
S1131390C7BD02C0C8BD17BCDF91CF910895CF93DC
S11313A0DF93EC010E94A809D7FF05C0D195C19530
S11313B0D10981E001C080E0CF3FD10519F014F0DC
S11313C0CFEFD0E0882329F01092B400C093B3008B
S11313D004C0C093B4001092B300DF91CF9108957C
S11313E0CF93DF93EB010E94B209CE010E94CF0993
S11313F0DF91CF9108950E94F009089584B18D7C06
S113140084B985B1826385B985E090E06F9364E027
S11314106A95F1F76F910197C9F708958091D90101
S1131420811105C081E08093D9010E94FE090895CD
S1131430CF93C82F0E940E0A83B18C23E9F38AE06C
S113144090E00E94950B83B18C23B1F383B18C237C
S1131450CF9108950E94180A0895A1E0B0E0E3E353
S1131460FAE00C94B01189830E940E0A93B190950E
S1131470898189232196E2E00C94CC110E942D0AE3
S11314800895282F30E09AE0899FF0011124E5584F
S1131490FE4F80859185009721F052814481541735
S11314A080F08AE0829FF001839FF00D1124E558BB
S11314B0FE4F9281848198130EC0858181110AC0E8
S11314C008954281DC01A40FB11D6C9382818F5F6A
S11314D08283E7CF128208959091C1009F77909301
S11314E0C1009AE0899FF0011124E558FE4F7187ED
S11314F060871282448325838081811105C0809195
S1131500C10080688093C1000895462F21E0BC018A
S113151080E00E946C0A08950E94850A08951F9233
S11315200F920FB60F9211242F933F934F935F9313
S11315306F937F938F939F93AF93BF93EF93FF9397
S11315406091C60080E00E94410AFF91EF91BF9133
S1131550AF919F918F917F916F915F914F913F9147
S11315602F910F900FBE0F901F9018959AE0899FAE
S1131570F0011124E558FE4F86819781892B59F09B
S113158091818381981738F48081811104C08091FE
S1131590C100806203C08091C1008F7D8093C1002F
S11315A008959AE0899FF0011124E558FE4F908137
S11315B0911102C098E901C098E19093C1000E9482
S11315C0B60A78940895CF92DF92EF92FF926B015E
S11315D07C0180E00E94D10AA8EFBFEFA701960129
S11315E00E949B11735D8E4C9E4FE4E0220F331FCB
S11315F0441F551FEA95D1F70E943D113093C50051
S11316002093C400FF90EF90DF90CF9008959AE06C
S1131610899FF0011124E558FE4F26813781211559
S1131620310541F041819381491720F49091C00024
S113163095FD03C00E94B60A08959181D901A90FAE
S1131640B11D9C919093C60091819F5F9183F2CFCD
S11316501F920F920FB60F9211242F933F934F9323
S11316605F936F937F938F939F93AF93BF93EF9306
S1131670FF9380E00E94070BFF91EF91BF91AF9120
S11316809F918F917F916F915F914F913F912F9196
S11316900F900FBE0F901F9018952F928F939F93CA
S11316A02FB680918C0190918D01019680938C01CD
S11316B090938D0190E080918E01891F80938E011B
S11316C0909186019C5F9093860180918501805161
S11316D09742C0F0909386018093850180918701A1
S11316E0909188010196809387019093880190E0FE
S11316F080918901891F8093890180918A01891FC2
S113170080938A012FBE9F918F912F90189528EE78
S113171033E0019748F0F9016F9364E06A95F1F7BB
S11317206F913197C9F7F5CF08950E94870B0895FB
S1131730E0E7F0E080818E7F8083A0EBB0E08C91C5
S113174083608C93A1EBB0E08C91807F8C938C911F
S113175082608C93B89A80818160808378940895A4
S11317608091DA01811105C081E08093DA010E9441
S1131770980B08950E94B00BE0E7F0E080818E7F23
S1131780808310928701109288011092890110922F
S11317908A01109286011092850180818160808384
S11317A00895682F8FE891E00E94B90F0895462F9D
S11317B020E0BC018FE891E00E948A1008950F9305
S11317C0CF93DF9300D000D01F92CDB7DEB79C013A
S11317D085E0E6E3F1E0DE01119601900D928A9531
S11317E0E1F7662311F00FEF01C003E145E0BE010C
S11317F06F5F7F4F8FE891E00E94B10C8FE891E01A
S11318000E94880C0E94BA0B0F900F900F900F90BB
S11318100F90DF91CF910F91089560E00E94DF0B4C
S113182008958FE891E00E94FF1008956F9364E09B
S11318306A95F1F76F910197C9F70895FC01118238
S1131840108213821282158214821682683068F420
S113185089E290E0918380838BE290E0938382839A
S11318608AE290E0958384831FC06E3070F483E233
S113187090E09183808385E290E09383828384E285
S113188090E09583848368500FC0653198F486E2B4
S113189090E09183808388E290E09383828387E25F
S11318A090E0958384836E5081E001C0880F6A952F
S11318B0EAF786830895A7E0B0E0E1E6FCE00C9443
S11318C0AE118C01FC0111821082138212821582E6
S11318D0148217821682613118F080E1808702C079
S11318E0FC016087F801208B642FCE0101960E94D1
S11318F01E0C8F81F80181878B819C81938782875D
S11319008D819E81958784872796E4E00C94CA1183
S1131910FC01A485B585109779F08C919185892B6C
S11319208C93A285B3859C918185809589238C9322
S113193088EC90E00E94160C0895FC01A485B585FE
S1131940109771F08C919185892B8C93A285B38526
S11319508C919185892B8C9388EC90E00E94160CD5
S11319600895A7E0B0E0E7EBFCE00C94A3117C0140
S11319704B01642F3901402F20E00E945B0C87014A
S11319800F5B1F4FF80110826701F2E4CF0ED11CE8
S1131990F60110825701F3E4AF0EB11CF501108279
S11319A0F70177866686512CF7018085581650F525
S11319B0652C712CF401E60DF71D6081CE010196B2
S11319C00E941E0C2F81F701E60DF71D218B8981E2
S11319D09A81F301EE0FFF1FEE0DFF1D92A381A369
S11319E08332910511F4F80108C08632910511F48F
S11319F0F60103C0899721F4F5018081822B80834D
S1131A005394D2CF2796EFE00C94BF11A0E0B0E03E
S1131A10ECE0FDE00C94A511EC015B016C0181E4A8
S1131A20C80ED11CF60180807E01F2E4EF0EF11C99
S1131A30F70170808E010D5B1F4FF801908080E0EC
S1131A409885891748F4F501E80FF11DE80FF11D99
S1131A50118210828F5FF4CF84B1F6019081892BBB
S1131A6084B987B1F7019081892B87B98AB1F801CC
S1131A709081892B8AB985B1F6019081892B85B92A
S1131A8088B1F7019081892B88B98BB1F8019081D5
S1131A90892B8BB98AE090E00E94160C94B1F60170
S1131AA080818095892384B997B1F70180818095DD
S1131AB0892387B99AB1F8018081809589238AB9ED
S1131AC095B1F60180818095892385B998B1F70194
S1131AD080818095892388B99BB1F80180818095A4
S1131AE089238BB9E090B000D090B1008091B00010
S1131AF083608093B00082E08093B1004091B20093
S1131B0080E090E02E853F858217930720F5C090F2
S1131B10B2002C2D241B820F911D03B1081132C079
S1131B20F6B0F7102FC029B129112CC010C0212FF5
S1131B3030E0A901440F551FF501E40FF51F608142
S1131B407181672B21F11F5F2885121780F37F2C89
S1131B50802E4C2DD7CFE092B000D092B10020E07F
S1131B608885281730F5F501E20FF11DE20FF11D0C
S1131B7080819181892B21F48E859F859183808337
S1131B802F5FEECF03B1F6B099B010E0DDCFDE01E8
S1131B90A40FB51F91960D90BC91A02D4C91DE0120
S1131BA0A20FB31F51962C91422369F6918380832F
S1131BB0CACFCDB7DEB7EDE00C94C111EF92FF921E
S1131BC00F931F93CF93DF93FC019B01F0907C0054
S1131BD000917A0047B118B180917A0086FDFCCF5C
S1131BE080E09085891748F4D901A80FB11DA80F8A
S1131BF0B11D1D921C928F5FF4CF97B182A1809585
S1131C00892387B998B182A18095892388B987E807
S1131C1080937A00E12C81A1E81610F0E12C29C010
S1131C2050E08085581718F5A52FB0E0EF01CA0FD2
S1131C30DB1F8989806480937C0080917A008064B2
S1131C4080937A0080917A0086FDFCCF60917800C1
S1131C5070917900AA0FBB1FA20FB31F8D919C91A5
S1131C601197860F971F8D939C935F5FDACFE39450
S1131C70D2CF8085E816A0F4E901CE0DD11DCE0D9A
S1131C80D11D61A170E0CB0195958795A881B9819B
S1131C908A0F9B1F0E94291179836883E394E9CFFB
S1131CA0F0927C0000937A0018B947B9CDB7DEB73B
S1131CB0E6E00C94C811A0E2B0E0E1E6FEE00C948A
S1131CC0AB118C017B01D42E8FEF840F823018F47A
S1131CD0C8010E949D0CD80150968C91B7018111C6
S1131CE010C0C8010E94060DC8010E94880CB2E011
S1131CF0DB123AC0BE016F5F7F4FC8010E94060D20
S1131D000FC0C8010E94DE0DC8010E94880CE2E0E9
S1131D10DE122AC0BE016F5F7F4FC8010E94DE0D34
S1131D2040E0F80180854817F8F4842F90E0880F8C
S1131D30991FF701E80FF91F21E030E02C0F3D1F38
S1131D40820F931FD8011E962D913C911F97DC01A1
S1131D508D919C91281B390B80819181820F931F57
S1131D60918380834F5FDDCFA096E7E00C94C71189
S1131D702F923F925F926F927F928F929F92AF9237
S1131D80BF92CF92DF92EF92FF920F931F93CF9364
S1131D90DF93CDB7DEB7C056D1090FB6F894DEBFD6
S1131DA00FBECDBF8C014B015A01522EDA018D9129
S1131DB09C91892B31F0F40180819181892BF1F47C
S1131DC024C0D80118968C9190E0880F991F0E9426
S1131DD0DD11F50191838083009709F4B1C0FC0102
S1131DE020E030E0D80118968C9190E0281739074C
S1131DF014F7119211922F5F3F4FF4CFE12CF12C85
S1131E006E01B1E2CB0ED11C21C0F801808590E0B7
S1131E10880F991F0E94DD11D4018D939C93009724
S1131E2009F48EC0FC0120E030E0D80118968C91B2
S1131E3090E02817390714F7D8011E968D919C91CC
S1131E401F97819391932F5F3F4FEFCF452DBE0195
S1131E506F5B7F4FC8010E945B0EF8016084712C98
S1131E60FE01EF5BFF4FC6019E012F5F3F4F19013B
S1131E7020E030E0261537054CF5E114F10489F033
S1131E80DC016D917C91408151816417750748F0A4
S1131E90D1016D917C91408151814617570748F0DB
S1131EA00DC040815181DC014D935C93E114F10438
S1131EB079F740815181D1014D935C932F5F3F4F5E
S1131EC0B2E02B0E311C32960296D4CFEFEFEE1A0D
S1131ED0FE0AFAE0EF16F10409F0B8CF9E012F5F75
S1131EE03F4F7901360180E090E0F801208530E031
S1131EF0821793072CF5D7012D913D917D01B301F4
S1131F006C197D09D501ED91FC91E60FF71F408115
S1131F1051814217530710F431832083F301219137
S1131F2031913F01D401ED91FC91E60FF71F4081FF
S1131F3051812417350710F4318320830196D5CFBE
S1131F40C05ADF4F0FB6F894DEBF0FBECDBFDF918E
S1131F50CF911F910F91FF90EF90DF90CF90BF90A2
S1131F60AF909F908F907F906F905F903F902F9055
S1131F7008951F93CF93DF93EC01162F8FEF860FF5
S1131F80823018F0662359F014C021E0AE014E5F90
S1131F905F4FBE01CE010E94B80E123051F4AE0163
S1131FA04A5F5F4FBE016C5F7F4F20E0CE010E940D
S1131FB0B80EDF91CF911F910895A0E0B0E0E3EE59
S1131FC0FFE00C94A911EC018B01B42E842F8D7FBA
S1131FD051F48C819D81892B09F497C08E819F8156
S1131FE0892B09F492C08FEF8B0D823050F48881D5
S1131FF09981892B09F489C08A819B81892B09F4F1
S113200084C04B2DB801CE010E945B0E780100E024
S113201010E0C12CD12C888590E0C816D9060CF0AC
S113202074C081E0B8120AC0EA81FB81E00FF11F9D
S11320300190F081E02DA881B9810DC08C819D8132
S11320402E813F81B1100CC0F901E00FF11F019006
S1132050F081E02DDC01A00FB11F8D919C9128C06F
S1132060FC01E00FF11F40815181E881F981E00F0B
S1132070F11F80819181EE85FF854817590710F47F
S1132080CF0104C08E0F9F1F841B950BD901A00F95
S1132090B11F2D913C91AA81BB81A00FB11F4D911D
S11320A05C912417350720F0E40FF51FE21BF30BB6
S11320B0E81BF90BA9F0D7012D913C9140E050E0C9
S11320C0281B390B41095109A8EEB3E00E948D1178
S11320D09F0140E050E00E945F1137FD0AC002C03A
S11320E020E030E0293EB3E03B072CF028EE33E05B
S11320F002C020E030E0F701219331937F01FFEF2C
S1132100CF1ADF0A0E5F1F4F86CFCDB7DEB7E9E0E7
S11321100C94C511A0E0B0E0E0E9F0E10C94A0114A
S1132120EC018B01822E0E94DD0F2884E801412CF2
S1132130512C320100E010E0C12CD12C7601312C5D
S1132140912C58EEA52E53E0B52E921421F1E9916D
S1132150F991882021F0C5018E1B9F0BFC01E93CFD
S1132160F10524F4E333F10574F002C0332433940D
S1132170DF01A30192010E949811C60ED71EE81E2A
S1132180F91E0E0F1F1F939498EE490E93E0591EEB
S1132190611C711CDACF31101EC0492D50E0415032
S11321A0510924EF31E0429FC001439F900D529F9B
S11321B0900D11242091D3013091D40128173907AF
S11321C0B4F088EE93E0489F9001499F300D589FEA
S11321D0300D11240EC0980140E050E0C701B60153
S11321E00E943D113093D4012093D30102C020E01A
S11321F030E0C901CDB7DEB7E2E10C94BC11CF9356
S1132200DF93EC018A819B81009711F00E94721286
S11322108E819F81009711F00E94721288819981AA
S1132220009711F00E9472128C819D81009711F029
S11322300E947212DF91CF910895991B79E004C036
S1132240991F961708F0961B881F7A95C9F78095F1
S11322500895AA1BBB1B51E107C0AA1FBB1FA617E9
S1132260B70710F0A61BB70B881F991F5A95A9F73B
S113227080959095BC01CD010895A1E21A2EAA1B68
S1132280BB1BFD010DC0AA1FBB1FEE1FFF1FA21722
S1132290B307E407F50720F0A21BB30BE40BF50B1F
S11322A0661F771F881F991F1A9469F760957095A8
S11322B0809590959B01AC01BD01CF010895052E39
S11322C097FB1EF400940E94761157FD07D00E94DC
S11322D03D1107FC03D04EF40C94761150954095B3
S11322E0309521953F4F4F4F5F4F089590958095BE
S11322F0709561957F4F8F4F9F4F0895A29FB001B6
S1132300B39FC001A39F700D811D1124911DB29F25
S1132310700D811D1124911D08950E947E11A59FA9
S1132320900DB49F900DA49F800D911D11240895CC
S1132330B7FF0C948D110E948D11821B930B08958D
S11323402F923F924F925F926F927F928F929F92C1
S1132350AF92BF92CF92DF92EF92FF920F931F93AF
S1132360CF93DF93CDB7DEB7CA1BDB0B0FB6F89460
S1132370DEBF0FBECDBF09942A88398848885F84A0
S11323806E847D848C849B84AA84B984C884DF8011
S1132390EE80FD800C811B81AA81B981CE0FD11DF5
S11323A00FB6F894DEBF0FBECDBFED010895EE0F5A
S11323B0FF1F0590F491E02D0994CF93DF938230B1
S11323C0910510F482E090E0E091C902F091CA0214
S11323D020E030E0C0E0D0E0309711F1408151813D
S11323E048175907C0F04817590761F4828193814F
S11323F0209719F09B838A832BC09093CA02809301
S1132400C90226C02115310519F04217530718F4E3
S11324109A01BE01DF01EF010280F381E02DDCCFE0
S11324202115310509F1281B390B2430310590F4AD
S113243012968D919C9113976115710521F0FB0102
S11324409383828304C09093CA028093C902FD01DE
S1132450329644C0FD01E20FF31F81939193225001
S113246031092D933C933AC02091C7023091C802A0
S1132470232B41F420911001309111013093C802B3
S11324802093C70220910E0130910F0121153105CF
S113249041F42DB73EB74091120150911301241B12
S11324A0350BE091C702F091C802E217F307A0F4DC
S11324B02E1B3F0B2817390778F0AC014E5F5F4F96
S11324C02417350748F04E0F5F1F5093C8024093FE
S11324D0C7028193919302C0E0E0F0E0CF01DF9165
S11324E0CF9108950F931F93CF93DF93009709F42F
S11324F08CC0FC013297138212820091C9021091A0
S1132500CA020115110581F420813181820F931FC4
S11325102091C7023091C8022817390779F5F09342
S1132520C802E093C70271C0D80140E050E0AE1782
S1132530BF0750F412962D913C911397AD012115CC
S1132540310509F1D901F3CF9D01DA0133832283E7
S113255060817181860F971F8217930769F4EC01DC
S113256028813981260F371F2E5F3F4F3183208307
S11325708A819B8193838283452B29F4F093CA0239
S1132580E093C90242C01396FC93EE931297ED01B7
S1132590499159919E01240F351FE217F30771F4F5
S11325A080819181840F951F029611969C938E933E
S11325B08281938113969C938E931297E0E0F0E0CE
S11325C0D80112968D919C911397009719F0F801F8
S11325D08C01F6CF8D919C9198012E5F3F4F820F15
S11325E0931F2091C7023091C8022817390769F454
S11325F0309729F41092CA021092C90202C01382C1
S113260012821093C8020093C702DF91CF911F91E9
S11326100F91089510E0C6E5D0E004C0FE010E94C9
S1112620D7112196C735D107C9F7F894FFCF1B
S113262E88130F00F4010400D0070401080200000F
S113263ECB022000200000010203040506FF9C01CA
S113264EB501CF01EA0107022602470269028E0292
S113265EB502DE020A030E0F101112337069312E09
S113266E31006D56005072657373204200476F211E
S113267E0063007B25733A25737D004242004C4C67
S10D268E00525200434C0043520076
S9030000FC
