S01900003370692D73657269616C2D6D61737465722E7372656399
S11300000C9435000C9452000C9452000C94520041
S11300100C9452000C9452000C9452000C94520014
S11300200C9452000C9412070C9452000C9452003D
S11300300C9452000C94FB030C9452000C94520048
S11300400C9452000C9452000C9454060C94ED063B
S11300500C9452000C9452000C9452000C945200D4
S11300600C9452000C945200C80711241FBECFEF09
S1130070D8E0DEBFCDBF11E0A0E0B1E0E0E1F6E101
S113008002C005900D92A634B107D9F722E0A6E488
S1130090B1E001C01D92A43AB207E1F70E940F013A
S11300A00C94FB0A0C940000CF930E9479050E94E3
S11300B003069091B301891317C00E94630460E0A2
S11300C083E00E9400066091B1017091B201CB01FE
S11300D001969093B2018093B101072E000C880B16
S11300E0990B0E94DD05E3CFE92FF0E0E253FE4FC8
S11300F0C0819F5F943618F49093B30102C01092AC
S1130100B30161E080E00E9400066091B30170E0F9
S113011080E090E00E94DD0560E080E00E9400063F
S11301208C2F0E94090584EF91E00E945A078C2FBE
S1130130CF9108950F931F93CF93DF93C8EBD1E032
S11301408E01085B11400E9454008A3011F089939B
S1130150F7CFF801E954FE4F1082C801DF91CF9127
S11301601F910F910895EF92FF920F931F93CF93D6
S1130170DF9300D0CDB7DEB72AE330E03A8329839A
S1130180BE016F5F7F4F0E94B40A9093B7018093C2
S1130190B601BE016F5F7F4F80E090E00E94B40A19
S11301A09093CD018093CC01FC0101900020E9F7EC
S11301B031978F01081B190B780181E0E81AF108C7
S11301C08091B6019091B701FC0101900020E9F7FC
S11301D03197AF01481B590BBC016F5F7F4F0E94E1
S11301E0B90A8091CC019091CD01FC0101900020CD
S11301F0E9F73197AF01481B590B4E195F09BC0150
S1130200600F711F8E0D9F1D0E94B90A0F900F90F1
S1130210DF91CF911F910F91FF90EF90089580EDA2
S113022097E00E94C40781E00E946D040E94790552
S113023080E491E00E94880560E072EC81E090E047
S11302400E94A80664E68EEC91E00E945106C12C3F
S1130250D12C76010E949A0088EB91E00E94B300B1
S11302600E94790560E080E00E940006C701B601A3
S11302700E94DD0588EE93E00E945A078FEFC81AAA
S1130280D80AE80AF80AE6CF90914B01E0914601BA
S1130290F0914701992311F0849101C080812FEBE3
S11302A0280F2A3110F4805E0895803249F49F01AA
S11302B02F5F3F4F3093470120934601EF2B31F7D7
S11302C008951F93CF93DF930E944401C0E0D0E0D0
S11302D01AE090ED980F9A30B8F49E01129FE00155
S11302E0139FD00D1124C80FD11D87FDDA95E09717
S11302F08091460190914701019690934701809324
S113030046010E944401E5CFCE01DF91CF911F91B8
S1130310089510926F0083E28093800081E18093BE
S113032081001092820080E197E29093890080938B
S1130330880010928B0010928A00229A7894089573
S11303408F929F92AF92BF92DF92EF92FF920F93A0
S11303501F93CF93DF935C018B01D42E80914801CE
S1130360811105C081E0809348010E9489011092A7
S11303700901B7FE05C0E894B7F82AE0F22E02C0DE
S1130380FF24F394E09081002E2D287FE22E48EC88
S1130390F49EC00111248A159B05E0F4E50151E1A6
S11303A0A51657E2B50610F0C0E1D7E2BE01769576
S11303B0679580E090E06058794687469F4F4E01EC
S11303C0A12CB12CA50194010E94E70859018E2D9E
S11303D0816024C0C8E2FC9EC02D1124D0E0CA155F
S11303E0DB0508F4E501BE01769567959E0140E0C2
S11303F050E08AE0F81207C080E090E0605E734449
S113040081449F4F06C080E090E060537D4E8C4E47
S11304109F4F0E94E70859018E2D8260882E2AE0A2
S1130420F21207C0CE0105966AE070E00E94D3087C
S1130430EB01C83E43E0D40759F09801DE010E9465
S1130440280928EE33E040E050E00E9409098901C0
S113045010926F0080928100B0928900A09288006F
S113046020918800309189004D2D403108F04FE0F3
S113047080E190E0841B9109A90102C0569547953B
S11304808A95E2F750938B0040938A0010934E01B3
S113049000934D0186B38FEF86BB81E080936F009C
S11304A0DF91CF911F910F91FF90EF90DF90BF905C
S11304B0AF909F908F900895CF93DF93EB018F3F80
S11304C011F0411105C040E0BE0188EE93E043C045
S11304D0813130F050EF580F503618F05FE501C00D
S11304E050E0852F6CE00E94C708682F74EF7603F4
S11304F090011124250F311D2C30310540F4F901F0
S1130500EE0FFF1FEE5EFE4F2081318102C020E01E
S113051030E0873081F0082E02C0220F331F0A9486
S1130520E2F7823028F0C90105966AE070E00CC059
S1130530C90190580CC0C90136E0880F991F3A953B
S1130540E1F7029665E070E00E94D308CB014031E8
S113055008F04FE0BE010E94A001DF91CF91089501
S1130560A2E0B0E0E6EBF2E00C944C0990900801B4
S113057080914A01882321F060914901611117C0DB
S113058077247394B0ECAB2EBDE5BB2E1AE0612E3C
S113059004E0802E80EDC82E87E0D82E94E0E92E6A
S11305A0F12C04EF11E02FE0422E512C15C070E025
S11305B040E088EE93E00E94A0011092490117C127
S11305C08636D4F5813609F4A9C07CF58C3309F458
S11305D060C08E3381F493940E94440120914601BB
S11305E0309147012F5F3F4F3093470120934601DD
S11305F0853631F752C0813209F08BC080920801F0
S1130600D0920701C0920601F0920501E092040124
S113061010930301009302015092010140920001E2
S113062010924A01A4E09A2ED7CF8336A1F10CF49C
S113063078C010E082E077C08D36C1F194F487363B
S113064091F174F18C3609F064C00E946101BC011F
S11306509093050180930401809106019091070114
S113066051C08237C9F14CF48F3609F052C00E9450
S11306706101982E80930801AFCF843781F18637CA
S113068009F047C00E946101909301018093000129
S1130690A3CF9A94A1CF10E020C010E084E043C01F
S11306A010E085E040C010E087E03DC00E944401B6
S11306B08C3619F410924A0104C070924A011092C7
S11306C0490120914601309147012F5F3F4F3093FC
S11306D047012093460180CF11E080E024C00E94AE
S11306E06101BC01C5010E94D308669EC001679EDA
S11306F0900D1124909307018093060160910401E9
S1130700709105010E94D308709303016093020164
S113071063CF109247011092460169C010E089E04E
S113072002C010E08BE0082F9CE0999E000D11247C
S11307300E944401982F977F933261F420914601DF
S1130740309147012F5F3F4F30934701209346017B
S11307500F5FEECF8D3271F4209146013091470145
S11307602F5F3F4F309347012093460101500E9471
S11307704401F0CF609102017091030181538830EC
S113078050F4E0900601F09007010E946101BC0161
S1130790C7010E94D3087B01F694E79469837A83A6
S11307A00E94440169817A818E3269F42091460164
S11307B0309147012F5F3F4F30934701209346010B
S11307C06E0D7F1DE9CF80914A01882339F09B018A
S11307D03695279520934901621B710940910001C8
S11307E0112311F08FEF01C0802F0E945C0222962A
S11307F0E0E10C9468091F920F920FB60F92112436
S11308002F933F934F935F936F937F938F939F9314
S1130810AF93BF93EF93FF9380914D0190914E015D
S11308209C012150310930934E0120934D01892BB5
S113083011F510926F00789480918100887F816017
S11308408093810080E197E29093890080938800EF
S113085010928B0010928A0081E0809309018091AC
S1130860460190914701892B31F080914C0181110F
S113087002C00E94B002FF91EF91BF91AF919F918E
S11308808F917F916F915F914F913F912F910F9035
S11308900FBE0F901F90189580910901882331F0A5
S11308A08091460190914701892B49F481E0209180
S11308B0460130914701232B29F480E008950E94DA
S11308C0B002F4CF08950E944C04089580934C0123
S11308D0811102C00E944C0408950E946604089588
S11308E081E090E06F9364E06A95F1F76F9101976E
S11308F0C9F708950F931F93CF93DF931AB15798B5
S11309005A98289AC0E0D0E00E9470045C9A0E9431
S1130910700409B15C980E9470045C9A0E9470048F
S11309205C98249607FF10C0AE0160E070E08091EF
S11309304F0190915001A0915101B091520148177B
S113094059076A077B0700F31AB9DF91CF911F910A
S11309500F91089595B1282F217030E0220F331F95
S1130960482F467068E0469FA0011124242B9D7CEB
S1130970292B25B99BB188708295807F9F77892B1D
S11309808BB95C9A0E9470045C980E94700408956C
S1130990A0E0B0E0EEECF4E00C945509C82FD62E9C
S11309A0E42E8091B401811105C081E08093B401EB
S11309B00E9411050E947A0414B1D5B1FAB00BB1AA
S11309C02898DD2011F05A9A01C05A9894B1926384
S11309D094B9579A81E0E81629F08C2F82958F708C
S11309E00E94AA048C2F8F700E94AA04FAB80BB933
S11309F014B9D5B9CDB7DEB7E7E00C94710942E07C
S1130A0060E00E94C804089542E061E00E94C804C6
S1130A1008950E940405089541E060E00E94C8041E
S1130A20089580E197E2A0E0B0E080934F019093B5
S1130A305001A0935101B0935201529A209A549AB2
S1130A408EE190E00E945A0783E00E940C0586E044
S1130A5090E00E945A0783E00E940C0582E090E037
S1130A600E945A0783E00E940C0582E090E00E94F5
S1130A705A0782E00E940C0582E090E00E945A0727
S1130A8088E20E94FF0488E00E94FF0481E00E9443
S1130A90FF0486E00E94FF048CE00E94FF04089596
S1130AA081E00E94FF048091550190915601892BA9
S1130AB0F9F060E0A0E2262F30E070910A01809105
S1130AC00B0190E00197789FA001799F500D1124AC
S1130AD0241735074CF4E0915501F0915601E20FCB
S1130AE0F31FA0836F5FE7CF10925301109254015C
S1130AF008950E9450050895CF93DF93EC018991E6
S1130B00882319F00E940405FACFDF91CF9108954C
S1130B100E947C050895AAE0B0E0E1E9F5E00C94B8
S1130B2054091AE05AE0C52ED12CE12CF12C062FE1
S1130B30A70196010E94E708CA01B9011150E1E03A
S1130B40F0E0EC0FFD1FE10FF11D005D2AE0629F54
S1130B50001911240083611571058105910539F788
S1130B601A3058F4E1E0F0E0EC0FFD1FE10FF11D45
S1130B7080810E9404051F5FF3CF2A96E8E00C945D
S1130B807009CF92DF92EF92FF926B017C0197FF85
S1130B900BC0F094E094D094C094C11CD11CE11C0F
S1130BA0F11C8DE20E940405C701B6010E948B0569
S1130BB0FF90EF90DF90CF9008950E94C1050895B3
S1130BC0A5E0B0E0E6EEF5E00C945909182F80E8B2
S1130BD0898380EC8A8384E98B8384ED8C83FE0192
S1130BE0E60FF11D8181810F6D830E94FF04109334
S1130BF053016D81609354012596E3E00C947509CB
S1130C000E94E0050895809159010895282F30E04D
S1130C109AE0899FF0011124E95AFE4F808591855D
S1130C20009721F052814481541780F08AE0829F1A
S1130C30F001839FF00D1124E95AFE4F92818481C3
S1130C4098130EC0858181110AC008954281DC0188
S1130C50A40FB11D6C9382818F5F8283E7CF1282D0
S1130C6008959091C1009F779093C1009AE0899F65
S1130C70F0011124E95AFE4F718760871282448380
S1130C8025838081811105C08091C1008068809393
S1130C90C1000895462F21E0BC0180E00E94310686
S1130CA008950E944A0608951F920F920FB60F925C
S1130CB011242F933F934F935F936F937F938F935D
S1130CC09F93AF93BF93EF93FF936091C60080E02F
S1130CD00E940606FF91EF91BF91AF919F918F9172
S1130CE07F916F915F914F913F912F910F900FBE24
S1130CF00F901F9018959AE0899FF0011124E95AEA
S1130D00FE4F86819781892B59F0918183819817B1
S1130D1038F48081811104C08091C100806203C0D5
S1130D208091C1008F7D8093C10008959AE0899FCE
S1130D30F0011124E95AFE4F9081911102C098E903
S1130D4001C098E19093C1000E947B0678940895B5
S1130D50CF92DF92EF92FF926B017C0180E00E94C0
S1130D609606A8EFBFEFA70196010E944509735D9F
S1130D708E4C9E4FE4E0220F331F441F551FEA950B
S1130D80D1F70E94E7083093C5002093C400FF9078
S1130D90EF90DF90CF9008959AE0899FF00111249D
S1130DA0E95AFE4F268137812115310541F04181F1
S1130DB09381491720F49091C00095FD03C00E94CF
S1130DC07B0608959181D901A90FB11D9C9190933F
S1130DD0C60091819F5F9183F2CF1F920F920FB64D
S1130DE00F9211242F933F934F935F936F937F93AD
S1130DF08F939F93AF93BF93EF93FF9380E00E94F1
S1130E00CC06FF91EF91BF91AF919F918F917F910C
S1130E106F915F914F913F912F910F900FBE0F9063
S1130E201F9018952F928F939F932FB680916801EE
S1130E30909169010196809368019093690190E013
S1130E4080916A01891F80936A01909162019C5F7D
S1130E50909362018091610180519742C0F0909318
S1130E606201809361018091630190916401019614
S1130E70809363019093640190E080916501891FE0
S1130E808093650180916601891F809366012FBE5E
S1130E909F918F912F90189528EE33E0019748F099
S1130EA0F9016F9364E06A95F1F76F913197C9F78F
S1130EB0F5CF08950E944C070895E0E7F0E08081A3
S1130EC08E7F8083A0EBB0E08C9183608C93A1EB48
S1130ED0B0E08C91807F8C938C9182608C93B89AD3
S1130EE0808181608083789408958091B501811117
S1130EF005C081E08093B5010E945D0708950E94BA
S1130F007507E0E7F0E080818E7F808310926301B3
S1130F1010926401109265011092660110926201B0
S1130F201092610180818160808308950F93CF9333
S1130F30DF9300D000D01F92CDB7DEB79C0185E0CF
S1130F40EAE2F1E0DE01119601900D928A95E1F753
S1130F50662311F00FEF01C003E145E0BE016F5FAE
S1130F607F4F8BE691E00E9454088BE691E00E944B
S1130F703F080E947F070F900F900F900F900F90E3
S1130F80DF91CF910F91089560E00E949607089534
S1130F908BE691E00E94A90808956F9364E06A9536
S1130FA0F1F76F910197C9F70895FC01118210823E
S1130FB013821282158214821682683068F489E2E0
S1130FC090E0918380838BE290E0938382838AE232
S1130FD090E0958384831FC06E3070F483E290E0C8
S1130FE09183808385E290E09383828384E290E01E
S1130FF09583848368500FC0653198F486E290E04D
S11310009183808388E290E09383828387E290E0F7
S1131010958384836E5081E001C0880F6A95EAF756
S113102086830895A7E0B0E0E8E1F8E00C9458095D
S11310308C01FC01118210821382128215821482A7
S113104017821682613118F080E1808702C0FC01AA
S11310506087F801208B642FCE0101960E94D5078A
S11310608F81F80181878B819C81938782878D8111
S11310709E81958784872796E4E00C947409FC018B
S1131080A485B585109779F08C919185892B8C93E3
S1131090A285B3859C918185809589238C9388EC66
S11310A090E00E94CD070895A7E0B0E0EAE5F8E0FB
S11310B00C944D097C014B01642F3901402F20E031
S11310C00E94120887010F5B1F4FF801108267010D
S11310D0F2E4CF0ED11CF60110825701F3E4AF0EF7
S11310E0B11CF5011082F70177866686512CF70151
S11310F08085581650F5652C712CF401E60DF71D0A
S11311006081CE0101960E94D5072F81F701E60D7B
S1131110F71D218B89819A81F301EE0FFF1FEE0DDC
S1131120FF1D92A381A38332910511F4F80108C035
S11311308632910511F4F60103C0899721F4F50173
S11311408081822B80835394D2CF2796EFE00C9436
S11311506909CF93DF93EC018A819B81009711F099
S11311600E941C0A8E819F81009711F00E941C0A24
S113117088819981009711F00E941C0A8C819D81BD
S1131180009711F00E941C0ADF91CF910895991BDA
S113119079E004C0991F961708F0961B881F7A956A
S11311A0C9F780950895AA1BBB1B51E107C0AA1F6C
S11311B0BB1FA617B70710F0A61BB70B881F991FF4
S11311C05A95A9F780959095BC01CD010895A1E2A7
S11311D01A2EAA1BBB1BFD010DC0AA1FBB1FEE1FAD
S11311E0FF1FA217B307E407F50720F0A21BB30BF8
S11311F0E40BF50B661F771F881F991F1A9469F774
S113120060957095809590959B01AC01BD01CF01CF
S11312100895052E97FB1EF400940E94200957FDA3
S113122007D00E94E70807FC03D04EF40C94200971
S113123050954095309521953F4F4F4F5F4F0895FE
S113124090958095709561957F4F8F4F9F4F08952E
S1131250A29FB001B39FC001A39F700D811D1124F3
S1131260911DB29F700D811D1124911D08950E943E
S11312702809A59F900DB49F900DA49F800D911DEA
S113128011240895B7FF0C9437090E943709821B73
S1131290930B08952F923F924F925F926F927F9299
S11312A08F929F92AF92BF92CF92DF92EF92FF9272
S11312B00F931F93CF93DF93CDB7DEB7CA1BDB0B1E
S11312C00FB6F894DEBF0FBECDBF09942A883988C3
S11312D048885F846E847D848C849B84AA84B984CA
S11312E0C884DF80EE80FD800C811B81AA81B981D6
S11312F0CE0FD11D0FB6F894DEBF0FBECDBFED01EA
S11313000895EE0FFF1F0590F491E02D0994CF93FB
S1131310DF938230910510F482E090E0E091A20224
S1131320F091A30220E030E0C0E0D0E0309711F16A
S11313304081518148175907C0F04817590761F493
S113134082819381209719F09B838A832BC0909389
S1131350A3028093A20226C02115310519F0421779
S1131360530718F49A01BE01DF01EF010280F381F3
S1131370E02DDCCF2115310509F1281B390B243070
S1131380310590F412968D919C9113976115710516
S113139021F0FB019383828304C09093A302809382
S11313A0A202FD01329644C0FD01E20FF31F8193B6
S11313B09193225031092D933C933AC02091A0027D
S11313C03091A102232B41F420910E0130910F01A1
S11313D03093A1022093A00220910C0130910D01C1
S11313E02115310541F42DB73EB7409110015091BC
S11313F01101241B350BE091A002F091A102E21728
S1131400F307A0F42E1B3F0B2817390778F0AC0123
S11314104E5F5F4F2417350748F04E0F5F1F509300
S1131420A1024093A0028193919302C0E0E0F0E016
S1131430CF01DF91CF9108950F931F93CF93DF9343
S1131440009709F48CC0FC01329713821282009138
S1131450A2021091A3020115110581F420813181AA
S1131460820F931F2091A0023091A10228173907FF
S113147079F5F093A102E093A00271C0D80140E095
S113148050E0AE17BF0750F412962D913C9113977C
S1131490AD012115310509F1D901F3CF9D01DA011F
S11314A03383228360817181860F971F821793078C
S11314B069F4EC0128813981260F371F2E5F3F4FD5
S11314C0318320838A819B8193838283452B29F4F2
S11314D0F093A302E093A20242C01396FC93EE930E
S11314E01297ED01499159919E01240F351FE2177E
S11314F0F30771F480819181840F951F02961196F0
S11315009C938E938281938113969C938E931297CE
S1131510E0E0F0E0D80112968D919C91139700972A
S113152019F0F8018C01F6CF8D919C9198012E5FF2
S11315303F4F820F931F2091A0023091A1022817E0
S1131540390769F4309729F41092A3021092A20289
S113155002C0138212821093A1020093A002DF91B1
S1131560CF911F910F9108954FEA51E00E94CB0A49
S113157008956817790768F4FB01DC01E40FF51F8F
S1131580A40FB51F02C002900E9241505040D8F7EC
S113159008950C94F20AFA01A191B081009719F40C
S11315A01097E1F0CD01DC01CD010D90002011F484
S11315B0C00113C0FB012191222319F02015D9F792
S11315C0F3CFFB012191201519F41E92119606C048
S11315D02223C1F70D900020A1F7D001FA01A193B5
S11315E0B0830895FB01DC0102C001900D924150CB
S11315F05040D8F7089510E0C4E3D0E004C0FE01E1
S11316000E9481092196C533D107C9F7F894FFCF09
S11316100F00F4010400D007040108020000A40232
S113162020009C01B501CF01EA010702260247020E
S113163069028E02B502DE020A030E0F1011123384
S11316407069312E310063007B25733A25737D0068
S1091650737A61720000D0
S9030000FC
